:100000000A128A11E22FF100F0013A30710203184E
:100010000F2830307102031C0F28F001F00A700C19
:1000200008008316031788018901831603138601CC
:1000300087010A168A11BB220A128A11B93084007C
:10004000E03083120313E6000408E7001030E800F4
:100050006608840083130008E900E60A6708840044
:1000600069088000E70AE80B2828C930840090302E
:10007000E6000408E7001030E800660884008317F3
:100080000008E900E60A6708840083136908800015
:10009000E70AE80B3D28053083160313DC00003027
:1000A000DD000130DE000030DF000030D90000301C
:1000B000DA003F30DB00893083120313E600660864
:1000C000DA00831603135D0883120313DC00831622
:1000D00003135C0883120313DB00B9300A168A117C
:1000E000F2260A128A11773083120313E60066089B
:1000F000DA00831603135F0883120313DC008316F0
:1001000003135E0883120313DB00831603135908DD
:1001100083120313DD00831603135A08831203139B
:10012000DE00831603135B0883120313DF00C9305C
:100130000A168A11F2260A128A110A168A11BD209D
:100140000A128A11F401F40A01300A168A11D82120
:100150000A128A11B9300A168A1140210A128A112C
:10016000F401F40A02300A168A11D8210A128A11FF
:10017000C9300A168A1140210A128A11BE282F1589
:10018000DF28013083120313DA07FF305A07840097
:100190000A168A1100200A128A1183160313B80066
:1001A000003A0319DF2F643A0319DF28023A0319D2
:1001B000BF280F3A0319DF280A168A11FD2E0030D6
:1001C0002E0583120313E0000730831603132F0557
:1001D00083120313E1006008610403191B2F8316C7
:1001E00003132F1EF7280630B5000030B600230891
:1001F000840083130008B200840A0008B300840A54
:100200000008B400033083120313E0006008831673
:100210000313A3073208F0003308F1003408F2009A
:100220000030F3000030F4000030F5000A168A11A7
:1002300071230A128A110318362983160313320810
:10024000F0003308F1003408F2000A128A15022087
:100250000A128A11700883160313B2007108B300E2
:100260007208B4000330AE040030AF0483160313E9
:10027000AC01AD0134083304320403192A2AB23028
:1002800084008313000883120313E000840A00082B
:10029000E100840A0008E200840A0008E3000F304D
:1002A0000310E30CE20CE10CE00CFF3E031D5029AF
:1002B000FF306005E40000306105E5006408823E1F
:1002C00083160313AC008312031365080318013E61
:1002D000FF3E83160313AD00FF30AC070318AD0AD1
:1002E000FF30AD070330F0000030F1002D08F300BF
:1002F0002C08F2000A168A1180210A128A1171084C
:1003000083160313AD007008AC000A30F70000300C
:10031000F8002D08FA002C08F9000A168A11162395
:100320000A128A11780883160313AD007708AC000F
:10033000AD1FA029FF30AC070318AD0AFF30AD0791
:100340002C03FF3A0A128A1565250A128A118312B4
:100350000313370883160313A4008312031338080A
:1003600083160313A500831203133908831603139E
:10037000A600320883120313A70083160313330861
:1003800083120313A8008316031334088312031384
:10039000A90083160313240883120313AA008316EB
:1003A0000313250883120313AB00831603132608D7
:1003B00083120313AC000A128A1535200A128A111F
:1003C00083120313270883160313A4008312031355
:1003D000280883160313A500831203132908831624
:1003E0000313A6002408F0002508F1002608F200F7
:1003F0000030F3008030F4003F30F5000A168A1117
:1004000071230A128A1103180D2AFF308316031371
:10041000AC070318AD0AFF30292A831603132408FA
:10042000F0002508F1002608F2000030F30020302B
:10043000F4004130F5000A168A1171230A128A115C
:10044000031C2A2A013083160313AC070318AD0AD4
:100450000030AD07831603133608803AFF00803062
:100460007F02031D352A0D3035020318702A8316CA
:10047000031335080A128A15CB230A128A11831234
:1004800003133708C7003808C8003908C9008316A5
:100490000313320883120313CA00831603133308AD
:1004A00083120313CB008316031334088312031340
:1004B000CC000A168A11E9250A128A118312031345
:1004C000470883160313B2008312031348088316E8
:1004D0000313B30083120313490883160313B400F4
:1004E000831603132D08803AFF0080307F02031D1E
:1004F0007B2A0A302C020318AE2A83160313340811
:10050000330432040319072B320883120313C0008B
:1005100083160313330883120313C10083160313D6
:10052000340883120313C2000A168A1198240A128F
:100530008A11831203134308420441044004031D3B
:10054000072B831603132D08803AFF0080307F02AB
:10055000031DAC2A02302C02031C072B8316031345
:100560002408F0002508F1002608F2007030F3009E
:100570008930F4004030F5000A168A1171230A12FE
:100580008A110318C52AF730C62AF83083160313D8
:10059000AC070318AD0AFF30AD072C080A128A1504
:1005A00065250A128A118312031337088316031371
:1005B000A40083120313380883160313A5008312C3
:1005C0000313390883160313A6003208F00033081A
:1005D000F1003408F2002408F3002508F40026088E
:1005E000F5000A168A1126250A128A117308831645
:1005F0000313AB007208AA007108A9007008A800D4
:100600000030B2000030B3000030B400762B831607
:100610000313320883120313C00083160313330835
:1006200083120313C10083160313340883120313C8
:10063000C2000A168A1198240A128A11831203131F
:10064000430883160313AB00831203134208831677
:100650000313AA0083120313410883160313A9008E
:1006600083120313400883160313A8002B08FB0012
:100670002A08FA002908F9002808F8000A128A1541
:100680000A200A128A11780883120313D400790809
:10069000D5007A08D6008316031332088312031399
:1006A000D70083160313330883120313D80083166D
:1006B0000313340883120313D9000A168A115F2129
:1006C0000A128A1183120313540883160313B2000B
:1006D00083120313550883160313B3008312031305
:1006E000560883160313B400AC01AD01B801B80A73
:1006F0000A3038060319CC2B380883120313E000A4
:1007000001300310E00DFF3E031D812B0310600D2F
:10071000013E84000A168A1100200A128A11E100A3
:100720000A168A1100200A128A11E2000A168A119A
:1007300000200A128A11E3000A168A1100200A1208
:100740008A11E4006408831603132B02031DBE2BD9
:10075000831203136308831603132A02031DBE2B9F
:10076000831203136208831603132902031DBE2B91
:10077000831203136108831603132802031CCC2B76
:10078000013083120313E000600883160313B807D7
:100790000A303806031D7C2B3508380783120313F3
:1007A000E0008316031336080318360A003EB81B10
:1007B000FF3E83120313E100831603132C088312F8
:1007C00003136007E200831603132D0803182D0A94
:1007D000831203136107E300620883160313B00258
:1007E00083120313630883160313031CB103B102BE
:1007F000350836040319022CFF30B0070318B10A7C
:10080000FF30B10703302E0583120313E0000030E0
:10081000831603132F0583120313E100600861049C
:1008200003191A2CFF3083160313B0070318B10AFB
:10083000FF30B107831603132E1D7F2C03302E05C6
:1008400083120313E0000030831603132F05831275
:100850000313E1006008610403193F2C2D30E00010
:10086000831603133708840083120313600883136D
:1008700080000130E000600883160313B707831679
:1008800003133108803AFF0080307F02031D4A2C99
:1008900001303002031CAF2C303083120313E00010
:1008A000831603133708840083120313600883132D
:1008B00080000130E000600883160313B707FF30A3
:1008C000B0070318B10AFF30B1073F2C2030831264
:1008D0000313E00083160313370884008312031305
:1008E0006008831380000130E00060088316031362
:1008F000B707FF30B0070318B10AFF30B1078316FE
:1009000003133108803AFF0080307F02031D8A2CD8
:10091000013030020318662C0330831603132E05B2
:1009200083120313E0000030831603132F05831294
:100930000313E100600861040319AF2C2D30E000BF
:10094000831603133708840083120313600883138C
:1009500080000130E000600883160313B707FF3002
:1009600083120313E000600883160313B807380AE4
:100970000319562D380883120313E00001300310C9
:10098000E00DFF3E031DBF2C0310600D013E8400EF
:100990000A168A1100200A128A11F0000A168A111A
:1009A00000200A128A11F1000A168A1100200A1288
:1009B0008A11F2000A168A1100200A128A11F30025
:1009C000831603132B08F7002A08F6002908F50000
:1009D0002808F4000A168A11CE230A128A11730815
:1009E00083160313A7007208A6007108A5007008FB
:1009F000A400003083120313A3000030A2000030D3
:100A0000A1000A30A00083160313270883120313E2
:100A1000A70083160313260883120313A600831668
:100A20000313250883120313A50083160313240858
:100A300083120313A4000A168A116D220A128A1166
:100A400083120313230883160313A70083120313CF
:100A5000220883160313A6008312031321088316AA
:100A60000313A50083120313200883160313A400A5
:100A70002408303E831203139F2C3030831203135B
:100A8000E000831603133708840083120313600801
:100A9000831380000130E000600883160313B7075A
:100AA000FF30AC070318AD0AFF30AD072D08803AC0
:100AB000FF0080307F02031D5F2D01302C020318E0
:100AC0003D2D831603133608803AFF0080307F02E5
:100AD000031D6C2D09303502031C702D0830732D59
:100AE00083160313350883120313E000600883168E
:100AF0000313B800380883120313E000E101E01B80
:100B0000E103600883160313B5028312031361081F
:100B100083160313031CB603B60238080319A32D6A
:100B20002E3083120313E00083160313370884006A
:100B3000831203136008831380000130E000600813
:100B400083160313B70738080A128A1565250A1297
:100B50008A1183120313370883160313A00083122C
:100B60000313380883160313A100831203133908F3
:100B700083160313A200200883120313AA0083160E
:100B80000313210883120313AB00831603132208F7
:100B900083120313AC00831603133208831203136A
:100BA000A70083160313330883120313A8008316C8
:100BB0000313340883120313A9000A128A1535207F
:100BC0000A128A11831203132708C0002808C100E3
:100BD0002908C2000A168A1198240A128A1183125F
:100BE0000313430883160313AB0083120313420855
:100BF00083160313AA0083120313410883160313F9
:100C0000A90083120313400883160313A800FF30C2
:100C100083120313E000600883160313B807380A31
:100C20000319162F380883120313E0000130031054
:100C3000E00DFF3E031D172E0310600D013E8400E2
:100C40000A168A1100200A128A11F0000A168A1167
:100C500000200A128A11F1000A168A1100200A12D5
:100C60008A11F2000A168A1100200A128A11F30072
:100C7000831603132B08F7002A08F6002908F5004D
:100C80002808F4000A168A11CE230A128A11730862
:100C900083160313A7007208A6007108A500700848
:100CA000A400003083120313A3000030A200003020
:100CB000A1000A30A0008316031327088312031330
:100CC000A70083160313260883120313A6008316B6
:100CD0000313250883120313A500831603132408A6
:100CE00083120313A4000A168A116D220A128A11B4
:100CF00083120313230883160313A700831203131D
:100D0000220883160313A6008312031321088316F7
:100D10000313A50083120313200883160313A400F2
:100D20002408303E83120313E000831603133708B0
:100D30008400831203136008831380000130E000F5
:100D4000600883160313B707380883120313E00003
:100D500001300310E00DFF3E031DA92E0310600DAE
:100D6000013E84000A168A1100200A128A11A0008E
:100D70000A168A1100200A128A11A1000A168A1185
:100D800000200A128A11A2000A168A1100200A12F3
:100D90008A11A300831603132B0883120313A700E1
:100DA000831603132A0883120313A6008316031362
:100DB000290883120313A50083160313280883123E
:100DC0000313A4000A168A116D220A128A118312D3
:100DD0000313230883160313AB00831203132208A3
:100DE00083160313AA008312031321088316031327
:100DF000A900831203132008042E3030831203133A
:100E0000E00083160313370884008312031360087D
:100E1000831380000130E000600883160313B707D6
:100E2000FF30B5070318B60AFF30B6073508360499
:100E30000319DC28FD2E8316031323088400831373
:100E4000000883120313E000840A0008E100600830
:100E500083160313A8008312031361088316031378
:100E6000A9000030A91BFF30AA00AB00023083129A
:100E70000313E000600883160313A307AB1F4F2F73
:100E80000330AE040030AF04A809A909AA09AB09D0
:100E9000A80A0319A90A0319AA0A0319AB0A3508F3
:100EA0003604031D5F2F2B082A0429042804031D80
:100EB0005F2F0130B5070318B60A0030B607B80136
:100EC000B80A0A3038060319B52F380883120313FD
:100ED000E00001300310E00DFF3E031D6A2F0310F8
:100EE000600D013E84000A168A1100200A128A1140
:100EF000E1000A168A1100200A128A11E2000A167D
:100F00008A1100200A128A11E3000A168A110020B1
:100F10000A128A11E4006408831603132B02031DCE
:100F2000A72F831203136308831603132A02031DDA
:100F3000A72F831203136208831603132902031DCC
:100F4000A72F831203136108831603132802031CBF
:100F5000B52F013083120313E000600883160313DA
:100F6000B8070A303806031D652F380883120313AB
:100F7000E000E101E01BE1036108803AE200831632
:100F800003133608803A831203136202031DCE2F27
:100F90008316031335088312031360020A128A159D
:100FA00003183A2A83160313350883120313E0004B
:100FB000600883160313B8000A128A155C2A0A1205
:100FC0008A15C32B8317A030FD001030FE00C830F7
:100FD000FF00903084000A168A11EC200A128A1150
:100FE0008313F030FD001030FE00D830FF00E030F9
:100FF00084000A168A11EC2083010A128A11112832
:10100400720871047004031908008030F2060800A5
:101014008E30FC007C08FD00FF307B05031920287E
:1010240001300310FB0CFA0CF90CF80CFF3E031D05
:1010340013280130FC007C08FD070E287808F00016
:101044007908F1007A08F2007D08FC007C08F300BE
:10105400F4010A168A112C247008F8007108F900AA
:101064007208FA000800831203132708AD00280849
:10107400AE002908AF0003102E0D2F0DB00030086C
:10108400B1003108031D4D280030A7000030A8002E
:101094000030A90008002A08AD002B08AE002C0877
:1010A400AF0003102E0D2F0DB0003008B600360827
:1010B400031D63280030A7000030A8000030A900F9
:1010C400080036087B3EAD002D08B1072708AD00A7
:1010D4002808AE002908AF0010300310AF0CAE0C86
:1010E400AD0CFF3E031D6F282D08B0003008B6007C
:1010F4002A08AD002B08AE002C08AF0010300310F6
:10110400AF0CAE0CAD0CFF3E031D81282D08B000C2
:101114003008B6068030AD002D08B605A817AB1709
:10112400FF30AA05FF30AB050030AC050030B2003B
:101134000030B3000030B4000730AD002D08B50016
:10114400271CB2282A08B2072B08031103182B0AFC
:10115400031DB3072C08031103182C0A031DB4073D
:1011640001300310A90CA80CA70CFF3E031DB328E3
:1011740001300310AA0DAB0DAC0DFF3E031DBB28BF
:101184000130B502031DA2280930AD002D08B500B9
:10119400271CDA282A08B2072B08031103182B0A84
:1011A400031DB3072C08031103182C0A031DB407ED
:1011B40001300310A90CA80CA70CFF3E031DDB286B
:1011C40001300310B40CB30CB20CFF3E031DE32832
:1011D4000130B502031DCA283208F0003308F100BB
:1011E4003408F2003108AD002D08F3003608AE00D3
:1011F4002E08F4000A168A112C2470088312031393
:10120400A7007108A8007208A900080070308400C3
:101214000008F600840A0008F700840A0008F800B1
:10122400840A0008F9000310780D790DFA007A0891
:1012340083120313A5002508031D29290030F30098
:101244000030F2000030F1000030F000080073308C
:1012540084000008F600840A0008F700840A0008E5
:10126400F800840A0008F9000310780D790DFA00DB
:101274007A08A4002408031D48290030F300003034
:10128400F2000030F1000030F000080070308400FB
:1012940000308004840A00308004840A8030800492
:1012A400840A0030800470308400FF308005840A92
:1012B400FF308005840AFF308005840A00308005F1
:1012C4007330840000308004840A00308004840A6F
:1012D40080308004840A0030800473308400FF303E
:1012E4008005840AFF308005840AFF308005840A63
:1012F400003080050030A3000030A2000030A100BF
:101304000030A0007F30A502A0302407F600760844
:10131400A5022030F6007608A4000130F600031080
:10132400A00DA10DA20DA30DF60B9129733084001D
:101334000008F600840A0008F700840A0008F80090
:10134400840A0008F900703084000008FA00840A56
:101354000008FB00840A0008FC00840A0008FD0061
:1013640079087D02031DC02978087C02031DC02969
:1013740077087B02031DC02976087A02031CE5293D
:10138400733084000008F600840A0008F700840A19
:101394000008F800840A0008F90070308400760818
:1013A4008002840A7708031C770F8002840A780875
:1013B400031C780F8002840A7908031C790A8002CE
:1013C400033084022014703084000310800D840ADA
:1013D400800D840A800D840A800D840384038403B1
:1013E4000130A402031D8F29A51F162A2508803A5F
:1013F4009F3E0318062A0030F3000030F20000304C
:10140400F1000030F000080001300310A30CA20C1E
:10141400A10CA00CFF3E031D072A0130F60076083C
:10142400A5070319312A062A20302502031C2E2A77
:101434000030F3000030F2000030F1000030F00022
:1014440008000130F6000310A00DA10DA20DA30D9C
:10145400F60B252A0130A5022508031D232A23089B
:10146400F3002208F2002108F1002008F00008002F
:1014740083160313380883120313E000E101E01B11
:10148400E103831603133608803A83120313E20040
:101494006108803A6202031D532A6008831603130D
:1014A400350203185C2A831603133808B500B60105
:1014B400B51BB603831603133008310403197A2AC3
:1014C40003302E0583120313E00000308316031348
:1014D4002F0583120313E1006008610403197A2ABB
:1014E400FF3083160313B0070318B10AFF30B107A6
:1014F400831603132F1F9F2A3608803A831203137F
:10150400E000831603133108803A83120313600248
:10151400031D902A831603133008350203189B2AEF
:10152400831603133508B0023608031CB103B10255
:101534009F2A83160313B001B101380883120313E1
:10154400E000E101E01BE1036108803AE200831658
:1015540003133108803A831203136202031DB82A6D
:101564008316031330088312031360020318D02A6E
:1015740083160313380883120313E000E101E01B10
:10158400E103600883160313B00283120313610896
:1015940083160313031CB103B102D42A8316031365
:1015A400B001B1012E1D172B03302E058312031336
:1015B400E0000030831603132F0583120313E100A8
:1015C400600861040319F72A2D30E0008316031321
:1015D40037088400831203136008831380000130EA
:1015E400E000600883160313B7078316031330085B
:1015F40031040319592B303083120313E00083168E
:1016040003133708840083120313600883138000D4
:101614000130E000600883160313B707FF30B007FA
:101624000318B10AFF30B107F92A3008310403194D
:10163400382B203083120313E0008316031337087A
:101644008400831203136008831380000130E000D8
:10165400600883160313B707FF30B0070318B10AF5
:10166400FF30B10730083104031D1B2B03302E0556
:1016740083120313E0000030831603132F05831233
:101684000313E100600861040319592B2D30E000B5
:10169400831603133708840083120313600883132B
:1016A40080000130E000600883160313B707FF30A1
:1016B40083160313B5070318B60AFF30B607350AB5
:1016C4000319360A0319C82B003083120313A3002D
:1016D4000030A2000030A1000A30A00083160313DA
:1016E400350883120313E00001300310E00DFF3EC0
:1016F400031D772B0310600D013E84000A168A1126
:1017040000200A128A15F0000A168A1100200A1213
:101714008A15F1000A168A1100200A128A15F200AD
:101724000A168A1100200A128A15F300831603137D
:101734002B08F7002A08F6002908F5002808F40009
:101744000A168A11CE230A128A1573088312031308
:10175400A7007208A6007108A5007008A4000A1664
:101764008A116D220A128A15831203132008303E4F
:10177400E100610883160313B800380883120313C9
:10178400492B370884008313800108000A128A1148
:10179400DC2883120313C6006E304602031CA92CF6
:1017A4000330BA003A08A4000A30F7000030F80009
:1017B4004608BB00BC013B08F2003C08F30064305F
:1017C400F0000030F1000A168A1122220A128A154A
:1017D4007108FA007008F9000A168A1116230A1211
:1017E4008A157708093E0A168A11F9200A128A1501
:1017F400503E84000A168A1100200A128A158312A8
:101804000313A7000A168A1100200A128A15A800D9
:101814000A168A1100200A128A15A9000330BD0095
:101824003D08A4006430F7000030F8004608BE000C
:10183400BF013E08F9003F08FA000A168A11162370
:101844000A128A157708123E0A168A11F9200A121A
:101854008A15503E84000A168A1100200A128A153D
:1018640083120313AA000A168A1100200A128A1589
:10187400AB000A168A1100200A128A15AC000A125B
:101884008A1535200A128A15831203132708C30008
:101894002808C4002908C5000330BA003A08A40087
:1018A4004608BB00BC013B08F2003C08F3000A30C8
:1018B400F0000030F1000A168A1122220A128A1559
:1018C40070080A168A11F9200A128A15503E8400FB
:1018D4000A168A1100200A128A1583120313A7001C
:1018E4000A168A1100200A128A15A8000A168A11FB
:1018F40000200A128A15A9004308AA004408AB0074
:101904004508AC000A128A1535200A128A1583127A
:1019140003132708C0002808C1002908C2000030AA
:10192400A7000030A8003F30A9004008AA004108E1
:10193400AB004208AC000A128A1535208312031347
:101944002708B7002808B8002908B90008000B3098
:101954004602031C332D0330BA003A08A40046089B
:10196400BB00BC013B08F2003C08F3000A30F00065
:101974000030F1000A168A1122220A128A15700810
:101984000A168A11F9200A128A15503E84000A1692
:101994008A1100200A128A1583120313A7000A165B
:1019A4008A1100200A128A15A8000A168A1100203A
:1019B4000A128A15A9000330BD003D08A4000A30AC
:1019C400F7000030F8004608BE00BF013E08F900E9
:1019D4003F08FA000A168A1116230A128A15770894
:1019E400093E0A168A11F9200A128A15503E84000B
:1019F4000A168A1100200A128A1583120313AA00F8
:101A04000A168A1100200A128A15AB000A168A11D6
:101A140000200A128A15AC000A128A1535200A120F
:101A24008A15831203132708C3002808C400290851
:101A3400C5000030A7000030A8003F30A9004308CB
:101A4400AA004408AB004508AC000A128A153520E8
:101A5400831203132708B7002808B8002908B9001F
:101A640008000030A7000030A8003F30A900033070
:101A7400BA003A08A40046080A168A11F9200A1284
:101A84008A15503E84000A168A1100200A128A150B
:101A940083120313AA000A168A1100200A128A1557
:101AA400AB000A168A1100200A128A15AC000A1229
:101AB4008A153520831203132708B7002808B800B5
:101AC4002908B900080083120313BF00BF1FB62EF4
:101AD400BF09BF0A3F08803A123E031C292E033077
:101AE400BA003A08A4000A30F7000030F8003F08B2
:101AF400F200F301F21BF3036430F0000030F10054
:101B04000A168A1122220A128A157108FA0070082C
:101B1400F9000A168A1116230A128A157708093E53
:101B24000A168A11F9200A128A15503E84000A16F0
:101B34008A1100200A128A1583120313A7000A16B9
:101B44008A1100200A128A15A8000A168A11002098
:101B54000A128A15A9000330BB003B08A4006430B4
:101B6400F7000030F8003F08F900FA01F91BFA0306
:101B74000A168A1116230A128A157708123E0A16C3
:101B84008A11F9200A128A15503E84000A168A1115
:101B940000200A128A1583120313AA000A168A1156
:101BA40000200A128A15AB000A168A1100200A12B4
:101BB4008A15AC000A128A1535200A128A15831276
:101BC40003132708BC002808BD002908BE00033001
:101BD400BA003A08A4003F08F200F301F21BF30331
:101BE4000A30F0000030F1000A168A1122220A128B
:101BF4008A1570080A168A11F9200A128A15503EAD
:101C040084000A168A1100200A128A15831203130B
:101C1400A7000A168A1100200A128A15A8000A16BB
:101C24008A1100200A128A15A9003C08AA003D085E
:101C3400AB003E08AC000A128A1535208312031348
:101C44002708B7002808B8002908B90008003F0889
:101C5400803A753E031C972E0330BA003A08A4005C
:101C64003F08F200F301F21BF3030A30F0000030E6
:101C7400F1000A168A1122220A128A1570080A161D
:101C84008A11F9200A128A15503E84000A168A1114
:101C940000200A128A1583120313A7000A168A1158
:101CA40000200A128A15A8000A168A1100200A12B6
:101CB4008A15A9000330BB003B08A4000A30F700D2
:101CC4000030F8003F08F900FA01F91BFA030A167C
:101CD4008A1116230A128A157708093E0A168A11F0
:101CE400F9200A128A15503E84000A168A1100202F
:101CF4000A128A1583120313AA000A168A110020F5
:101D04000A128A15AB000A168A1100200A128A15D3
:101D1400AC000A128A153520831203132708B70072
:101D24002808B8002908B90008000330BA003A08A6
:101D3400A4003F080A168A11F9200A128A15503E97
:101D440084000A168A1100200A128A1583120313CA
:101D5400B7000A168A1100200A128A15B8000A165A
:101D64008A110020B90008003F08803A123E031C83
:101D7400732F0330BA003A08A4000A30F700003089
:101D8400F8003F08F200F301F21BF3036430F000A3
:101D94000030F1000A168A1122220A128A157108EB
:101DA400FA007008F9000A168A1116230A128A1515
:101DB4007708093E0A168A11F9200A128A15293E63
:101DC40084000A168A1100200A128A15831203134A
:101DD400A7000A168A1100200A128A15A8000A16FA
:101DE4008A1100200A128A15A9000330BB003B089F
:101DF400A4006430F7000030F8003F08F900FA014D
:101E0400F91BFA030A168A1116230A128A1577088F
:101E1400123E0A168A11F9200A128A15293E8400F4
:101E24000A168A1100200A128A1583120313AA00C3
:101E34000A168A1100200A128A15AB000A168A11A2
:101E440000200A128A15AC000A128A1535200A12DB
:101E54008A15831203132708BC002808BD0029082B
:101E6400BE000330BA003A08A4003F08F200F301B0
:101E7400F21BF3030A30F0000030F1000A168A1155
:101E840022220A128A1570080A168A11F9200A12E7
:101E94008A15293E84000A168A1100200A128A151E
:101EA40083120313A7000A168A1100200A128A1546
:101EB400A8000A168A1100200A128A15A9003C08F3
:101EC400AA003D08AB003E08AC000A128A15352072
:101ED400831203132708B7002808B8002908B9009B
:101EE40008003F08803A753E031CE12F0330BA0016
:101EF4003A08A4003F08F200F301F21BF3030A308E
:101F0400F0000030F1000A168A1122220A128A1502
:101F140070080A168A11F9200A128A15293E8400CB
:101F24000A168A1100200A128A1583120313A700C5
:101F34000A168A1100200A128A15A8000A168A11A4
:101F440000200A128A15A9000330BB003B08A40034
:101F54000A30F7000030F8003F08F900FA01F91BD5
:101F6400FA030A168A1116230A128A157708093EFB
:101F74000A168A11F9200A128A15293E84000A16C3
:101F84008A1100200A128A1583120313AA000A1662
:101F94008A1100200A128A15AB000A168A11002041
:101FA4000A128A15AC000A128A153520831203130B
:101FB4002708B7002808B8002908B900080003302A
:101FC400BA003A08A4003F080A168A11F9200A1236
:101FD4008A15293E84000A168A1100200A128A15DD
:101FE40083120313B7000A168A1100200A128A15F5
:101FF400B8000A168A110020B900080010308A00BF
:102004000408840A820700340134003400340034A4
:102014000A340034003400346434003400340034AE
:10202400E8340334003400341034273400340034EA
:10203400A034863401340034403442340F34003444
:1020440080349634983400340034E134F534053463
:102054000034CA349A343B34003480343F3400347E
:10206400203441340034C834423400347A344434A3
:1020740040341C3446345034C33447342434743428
:102084004934973418344B34BC34BE344C346B3438
:102094006E344E340334153450347934AD346034F2
:1020A400F33449347134003480343F34CD34CC3487
:1020B4003D34D73423343C34123483343A34B73483
:1020C400D1343834C634273437343834863435344C
:1020D400C034D6343334CC342B3432347034893471
:1020E4003034E734DB342E34E5343C341E344234AB
:1020F400A2340D346434693472343D342534643488
:10210400203464347534743479343D3425343034B3
:102114002E3433346634003449346E3476346534C2
:1021240072347434653472342034663472346534F1
:0C21340071343D34253469346B340034C0
:10217A0000300A168A1126210A168A1101300A1617
:10218A008A11262108003134323433343434353458
:10219A0036343734383439343034313432343334F1
:1021AA0034343534363461346234633464346534F7
:1021BA0066346734683469346A346B346C346D3429
:1021CA006E346F3470347E088A007F088200E820FB
:1021DA000A168A118000840A04087D06031900344D
:1021EA00FF0A0319FE0AEC2883120313A600A501AD
:1021FA00261C03292408FC007C08A5070310A40D4B
:10220A000310A60C2608031DFD2825080800F00067
:10221A00701C132983120313071716298312031339
:10222A000713F01C1A2987171B298713701D1F29EA
:10223A00061720290613F01D24298617080086137D
:10224A000800F30083120313071273080A168A118F
:10225A000C210A168A118312031387160630F2001C
:10226A003030F100F10B3729F20B372900008312C5
:10227A00031387120800F800F601F70176087807B9
:10228A00F50075088400831300080319080076080E
:10229A007807F50075088400831300080A168A1166
:1022AA00A1210A168A110130F6070318F70A00302D
:1022BA00F7074329831203135608550454040319D4
:1022CA0068298030D6065708C7005808C800590838
:1022DA00C9005408CA005508CB005608CC000A1693
:1022EA008A11E925831203134708D4004808D50048
:1022FA004908D6000800F401F501701C8A29720801
:10230A00F4070318F50A7308F50701300310F20DF4
:10231A00F30DFF3E031D8B2901300310F10CF00C65
:10232A00FF3E031D922970087104031D8229750856
:10233A00F1007408F0000800F40074080F39F10085
:10234A007108F2007408F039F1007108F300831281
:10235A00031307167308F10004300310F10CFF3E53
:10236A00031DB22971080A168A110C210A168A114C
:10237A008312031387160D30F100F10BC229831261
:10238A000313871272080A168A110C210A168A1177
:10239A008312031387160D30F100F10BD229831231
:1023AA00031387120800F7007703031DFD29740839
:1023BA007F3EF5007508FA007A08F500043003102C
:1023CA00F50CFF3E031DE4297508F6007608F800AF
:1023DA007A080F39F5007508F90078080A168A1183
:1023EA0026210A168A1179080A168A112621080056
:1023FA0002307706031D08007408BF3EF500750811
:10240A00FA007A08F50004300310F50CFF3E031DAC
:10241A00092A7508F6007608F8007A080F39F500D7
:10242A007508F90078080A168A1126210A168A11EF
:10243A0079080A168A1126210800F601F31F2C2AA8
:10244A00F209F309F20A0319F30AF601F60AF11F6F
:10245A00332AF009F109F00A0319F10A7008710424
:10246A000319602AF501F50AF11B472A0130031006
:10247A00F00DF10DFF3E031D3C2A0130F4007408F3
:10248A00F507392A71087302031D4D2A7008720272
:10249A00031C552A7008F2027108031CF303F302A5
:1024AA0001300310F10CF00CFF3E031D562A0130D7
:1024BA00F502031D472A76080319682AF209F30967
:1024CA00F20A0319F30A7308F1007208F00008000F
:1024DA008312031323082204210420040319B22AB5
:1024EA00A901A90AA31B872A0130A8000310A00D7D
:1024FA00A10DA20DA30DA80B7B2A0130A800280864
:10250A00A907772A23082702031D952A22082602EB
:10251A00031D952A21082502031D952A2008240255
:10252A00031CA52A2008A4022108031C210FA502C6
:10253A002208031C220FA6022308031C230FA7024A
:10254A0001300310A30CA20CA10CA00CFF3E031D2A
:10255A00A62A0130A902031D872A2708A3002608F4
:10256A00A2002508A1002408A000080000300A16CD
:10257A008A110C210A168A111A30F500F830F40073
:10258A00F40BC52AF50BC52A000003300A168A1176
:10259A0026210A168A110730F5007D30F400F40B63
:1025AA00D42AF50BD42A03300A168A1126210A16D0
:1025BA008A110F30F5004730F400F40BE22AF50BCC
:1025CA00E22AE72A03300A168A1126210A168A11F4
:1025DA0002300A168A1126210A168A1102300A16B0
:1025EA008A1126210A168A1108300A168A1126210A
:1025FA000A168A1100300A168A1126210A168A1129
:10260A000C300A168A1126210A168A1100300A1677
:10261A008A1126210A168A1106300A168A112621DB
:10262A00080083120313A101F81F222BF709F809E6
:10263A00F70A0319F80AA101A10AFA1F2D2BF909B1
:10264A00FA09F90A0319FA0A0130FB007B08A10604
:10265A00A201A301770878040319642BA001A00A38
:10266A00F81B432B01300310F70DF80DFF3E031D35
:10267A00382B0130FB007B08A007352B01300310F3
:10268A00A20DA30DFF3E031D442B78087A02031DF9
:10269A00502B77087902031C592B7708F90278081E
:1026AA00031CFA03FA02221401300310F80CF70C87
:1026BA00FF3E031D5A2B0130A002031D432B2108A4
:1026CA0003196C2BA209A309A20A0319A30A230856
:1026DA00F8002208F7000800F21F982B0030F600D5
:1026EA000030F7008030F8007009F9007109FA002B
:1026FA007209FB00F90A0319FA0A0319FB0A790895
:10270A00F6077A0803187A0F8B2B8C2BF7077B08AE
:10271A0003187B0F912B922BF8077608F0007708A5
:10272A00F1007808F200F51FBF2B0030F6000030E8
:10273A00F7008030F8007309F9007409FA00750986
:10274A00FB00F90A0319FA0A0319FB0A7908F607C2
:10275A007A0803187A0FB22BB32BF7077B080318F2
:10276A007B0FB82BB92BF8077608F3007708F4002B
:10277A007808F5008030F2068030F5067508720296
:10278A00031D080074087102031D08007308700213
:10279A0008000030FC000030FB000030FA00003076
:1027AA00F90073087204710470040319232CFD01E3
:1027BA00FD0AF31BEE2B0130F8000310F00DF10DAA
:1027CA00F20DF30DF80BE22B0130F8007808FD0743
:1027DA00DE2B0130F8000310F90DFA0DFB0DFC0D8C
:1027EA00F80BF02B73087702031D052C720876028A
:1027FA00031D052C71087502031D052C700874024F
:10280A00031C162C7008F4027108031C710FF502E0
:10281A007208031C720FF6027308031C730FF70287
:10282A00791401300310F30CF20CF10CF00CFF3E9A
:10283A00031D172C0130FD02031DEE2B7C08F3004B
:10284A007B08F2007A08F1007908F00008007308A2
:10285A000319342C720871047004031D472C0030CC
:10286A00F0000030F1000030F20008000130F500FD
:10287A007508F30701300310F20CF10CF00CFF3E5F
:10288A00031D402CFE3072050319622C3B2C0130CB
:10289A00F5007508F3070130F0070030031801301E
:1028AA00F107003003180130F20701300310F20C6F
:1028BA00F10CF00CFF3E031D5B2CFF30720503196F
:1028CA00712C4C2C0130F30201300310F00DF10D84
:1028DA00F20DFF3E031D6A2CF11B772C02307302A6
:1028EA000318672C73187F2CFF30F0057F30F10531
:1028FA00FF30F2050310F30C7308F500F601F70137
:10290A0010300310F50DF60DF70DFF3E031D862C52
:10291A007508F0047608F1047708F20474080319BC
:10292A000800F2170800831203134008C400410884
:10293A00C5004208C6000310450D460DC7004708EA
:10294A00CD004D08031DB22C0030C3000030C20078
:10295A000030C1000030C00008004008C40041082F
:10296A00C5004208C60017300310C60CC50CC40CBB
:10297A00FF3E031DB92C4408C7004708C800C11709
:10298A00FF30C005FF30C1050030C2054008C9004C
:10299A004108CA004208CB00CC018E30CD02CD1FBF
:1029AA00F42C4D08803A8F3E0318E42C0030C30003
:1029BA000030C2000030C1000030C0000800013001
:1029CA000310CC0CCB0CCA0CC90CFF3E031DE52C22
:1029DA000130C4004408CD0703190F2DE42C183028
:1029EA004D02031C0C2D0030C3000030C200003021
:1029FA00C1000030C00008000130C4000310C90D36
:102A0A00CA0DCB0DCC0DC40B032D0130CD024D08E0
:102A1A00031D012D480803191D2DC909CA09CB092F
:102A2A00CC09C90A0319CA0A0319CB0A0319CC0A21
:102A3A004C08C3004B08C2004A08C1004908C0003C
:102A4A0008007008F6007108F7007208F800031011
:102A5A00770D780DF900790883120313A50025086C
:102A6A00031D402D0030F3000030F2000030F10069
:102A7A000030F00008007308F6007408F7007508C3
:102A8A00F8000310770D780DF9007908A4002408DE
:102A9A00031D582D0030F3000030F2000030F10021
:102AAA000030F0000800F117FF30F005FF30F105A3
:102ABA000030F205F417FF30F305FF30F40500305B
:102ACA00F5050030A3000030A2000030A10000305C
:102ADA00A0007F30A50298302407F6007608A502E8
:102AEA001830F6007608A4000130F6000310A00D95
:102AFA00A10DA20DA30DF60B7B2D75087202031D05
:102B0A008C2D74087102031D8C2D73087002031C2E
:102B1A00992D7308F0027408031C740FF1027508EA
:102B2A00031C750AF202201401300310F00DF10D96
:102B3A00F20DFF3E031D9A2D0130A402031D792DCB
:102B4A00A51FC52D2508803A973E0318B52D0030DC
:102B5A00F3000030F2000030F1000030F00008000D
:102B6A0001300310A30CA20CA10CA00CFF3E031D04
:102B7A00B62D0130F6007608A5070319E02DB52D0C
:102B8A0018302502031CDD2D0030F3000030F2005E
:102B9A000030F1000030F00008000130F6000310A8
:102BAA00A00DA10DA20DA30DF60BD42D0130A50287
:102BBA002508031DD22D2308F3002208F20021085C
:102BCA00F1002008F0000800831203134708CD0023
:102BDA004808CE004908CF0003104E0D4F0DD00013
:102BEA005008D3004A08CD004B08CE004C08CF004D
:102BFA0003104E0D4F0DD0005008D2005308031990
:102C0A00122E520853020318192E5303FF3A520781
:102C1A00CD0019304D02031C192E4A08C7004B0873
:102C2A00C8004C08C90008005208031908005308D4
:102C3A0052020318282E5203FF3A5307CD001930C7
:102C4A004D02031808000630CD004D08D100C91BFB
:102C5A00D117CC1B5117C817FF30C705FF30C8055D
:102C6A000030C905CB17FF30CA05FF30CB0500304D
:102C7A00CC05520853020318682E01300310CA0DFE
:102C8A00CB0DCC0DFF3E031D432E0130D20252085C
:102C9A0053060319632E0130D1025108073903196B
:102CAA00632E422E01300310C90CC80CC70CFF3E1C
:102CBA00031D582E0130CD004D08D3075308520684
:102CCA000319912E572E530852020318912E0130E0
:102CDA000310C70DC80DC90DFF3E031D6D2E01302F
:102CEA00D3025208530603198D2E0130D10251081E
:102CFA00073903198D2E6C2E01300310CC0CCB0C26
:102D0A00CA0CFF3E031D822E0130CD004D08D207AA
:102D1A0053085206031D812ED11FA32EFF30C7066A
:102D2A00FF30C806FF30C9060130C7070030031854
:102D3A000130C807003003180130C907511FB52EEA
:102D4A00FF30CA06FF30CB06FF30CC060130CA0777
:102D5A00003003180130CB07003003180130CC07CC
:102D6A00D1014708CA07480803110318480A031D76
:102D7A00CB07490803110318490A031DCC07CC1FC6
:102D8A00D82EFF30CA06FF30CB06FF30CC06013002
:102D9A00CA07003003180130CB070030031801308E
:102DAA00CC07D101D10A4A08F0004B08F1004C08BF
:102DBA00F2005308CD004D08F3005108CE004E082A
:102DCA00F4000A168A112C24700883120313C70010
:102DDA007108C8007208C900080083160313B700F7
:102DEA005B3083120313E000600883160313A30009
:102DFA00013083120313DA07FF305A0784000A16D8
:102E0A008A1100200A168A11E0006008831603134B
:102E1A00B80038080319FD2F253038060319292F61
:102E2A00380883120313E00083160313370884005B
:102E3A00831203136008831380000130E0006008E6
:102E4A0083160313B707FD2EB001B101AE01AF011E
:102E5A00372F831603132E15013083120313E00054
:102E6A006008DA0783125A0884000A168A110020B9
:102E7A000A168A11303A03192E2F432F5A08840052
:102E8A000A168A1100200A168A110A128A110320C8
:102E9A000A168A11031C992F83160313B001B10174
:102EAA000A30F0000030F100831603133108F300F2
:102EBA003008F2000A168A1180210A168A1171084E
:102ECA0083160313B1007008B000831203135A0863
:102EDA0084000A168A1100200A168A11D03EE000E0
:102EEA00FF3003180030E100600883160313B007AF
:102EFA000318B10A83120313610883160313B10777
:102F0A00013083120313E0006008DA075A088400CC
:102F1A000A168A1100200A168A110A128A11032037
:102F2A000A168A110318552F831203135A088400AC
:102F3A000A168A1100200A168A112E3A031DF52F45
:102F4A00831603132F17013083120313E00060085E
:102F5A00DA0783160313B501B60183125A088400EF
:102F6A000A168A1100200A168A110A128A110320E7
:102F7A000A168A11031CFA2F831603133608F10066
:102F8A003508F0000A30F2000030F3000A168A1100
:102F9A0080210A168A11831203135A0884000A161A
:102FAA008A1100200A168A117007E00000300318FF
:102FBA0001307107E1006008D03E83160313B500A3
:102FCA008312031361080318013EFF3E831603139D
:102FDA00B600013083120313E0006008DA07B22F4B
:102FEA0083160313B501B6012F160A128A11C128D6
:062FFA000A128A15C32B28
:04400E00F4F0FFFFCC
:00000001FF
