:060000000A128A11F02F24
:100E6E004130831203139F00C030831603139F007B
:100E7E008316031708148316031305140800003491
:100E8E0000348034003400340134803401340034B2
:100E9E0002348034023400340334803403347E0848
:100EAE008A007F08820056270A128A118000840A5F
:100EBE0004087D0603190034FF0A0319FE0A5A2F8F
:100ECE00F4000130F2007208831203139F057408B8
:100EDE00F20002300310F20DFF3E031D712F0310BE
:100EEE00720DF30073089F040330F3009730F20085
:100EFE00F20B7F2FF30B7F2F842F831203139F147C
:100F0E009F18872F1E08F100831603131E08F0008A
:100F1E0008008316031788018901831603138601BF
:100F2E008312031386010A128A1137270A128A11B5
:100F3E0000300A128A1167270A128A117108F90005
:100F4E007008F800FA0108307A020318E62F7A08C2
:100F5E00F5007507203E840083130008F600840A0E
:100F6E000008F70079087702031DBF2F7808760274
:100F7E000318CF2F0130F5007A0AC72F0310F50D95
:100F8E00FF3E031DC52F7508831203130604DD2FC4
:100F9E000130F5007A0AD52F0310F50DFF3E031D23
:100FAE00D32F7508FF3A831203130605860001300E
:100FBE00F5007508FA0708307A02031CAE2F41308F
:100FCE00F600EE30F500F50BEA2FF60BEA2F0000D7
:100FDE009F2F83133030FD000730FE004630FF0098
:100FEE00203084000A128A115A2783010A128A11AC
:020FFE00902F32
:04400E00F4F0FFFFCC
:00000001FF
