:100000000A128A11D22FFA340034F401F501701C5F
:100010000F287208F4070318F50A7308F507013072
:100020000310F20DF30DFF3E031D102801300310E5
:10003000F10CF00CFF3E031D172870087104031D1E
:1000400007287508F1007408F00008006630831670
:100050000313A0002008A90001308312E507FF3038
:10006000650784000A168A1100200A128A11831675
:100070000313A0002008BD003D080319CF2F253031
:100080003D06031959283D08A00083120313630895
:1000900084008317641C83138316031320088000D5
:1000A000013083120313E3070318E40A0030E40766
:1000B0002C2883160313B601B701B401B5016928D2
:1000C0008316031334150130A00020088312031394
:1000D000E5078312650884000A168A1100200A12B7
:1000E0008A11303A031960287528650884000A16B9
:1000F0008A1100200A128A110A168A159F240A12F0
:100100008A11031CC72883160313B601B7010A30EE
:10011000F0000030F100831603133708F3003608AF
:10012000F2000A128A1105200A128A117108831638
:100130000313B7007008B600831203136508840028
:100140000A168A1100200A128A11D03E8316031360
:10015000A000FF3003180030A1002008B6070318E4
:10016000B70A2108B7070130A00020088312031343
:10017000E507650884000A168A1100200A128A1110
:100180000A168A159F240A128A11031887288312D7
:100190000313650884000A168A1100200A128A11C6
:1001A0002E3A031D1F298316031335170130A000B3
:1001B000200883120313E50783160313BB01BC0158
:1001C0008312650884000A168A1100200A128A1117
:1001D0000A168A159F240A128A11031C27298316DE
:1001E00003133C08F1003B08F0000A30F200003035
:1001F000F3000A128A1105200A128A1183120313CE
:10020000650884000A168A1100200A128A117007F4
:1002100083160313A0000030031801307107A100FA
:100220002008D03EBB0021080318013EFF3EBC0061
:100230000130A000200883120313E507E02883168D
:100240000313BB01BC01351627293515432901309D
:1002500083120313E507FF30650784000A168A112D
:1002600000200A128A1183160313BD00003A0319F5
:10027000CF2F643A03194329023A031925290F3A6B
:10028000031943292C2800303405A0000730350518
:10029000A1002008210403193B2F351E53290630E5
:1002A000BB000030BC002908840083130008B8009C
:1002B000840A0008B900840A0008BA000330A000CC
:1002C0002008A9073808F0003908F1003A08F200C0
:1002D0000030F3000030F4000030F5000A168A11F7
:1002E000EB200A128A1103188E298316031338088B
:1002F000F0003908F1003A08F2000A128A150220CB
:100300000A128A11700883160313B8007108B90025
:100310007208BA000330B4040030B5048316031326
:10032000B201B3013A083904380403197A2AB83003
:10033000840083130008A000840A0008A100840A36
:100340000008A200840A0008A3000F300310A30CC9
:10035000A20CA10CA00CFF3E031DA629FF30200516
:10036000A40000302105A5002408823EB200250823
:100370000318013EFF3EB300FF30B2070318B30A73
:10038000FF30B3070330F0000030F1003308F30012
:100390003208F2000A128A1105200A128A11710825
:1003A00083160313B3007008B2000A30F700003060
:1003B000F8003308FA003208F9000A168A15A52752
:1003C0000A128A11780883160313B3007708B20063
:1003D000B31FF029FF30B2070318B30AFF30B30789
:1003E0003203FF3A0A128A1565250A128A1183120E
:1003F0000313400883160313AA0083120313410852
:1004000083160313AB0083120313420883160313EE
:10041000AC00380883120313B000831603133908A5
:1004200083120313B100831603133A0883120313D4
:10043000B200831603132A0883120313B300831632
:1004400003132B0883120313B400831603132C0821
:1004500083120313B5000A168A11F2240A128A11B4
:1004600083120313300883160313AA0083120313A5
:10047000310883160313AB0083120313320883166B
:100480000313AC002A08F0002B08F1002C08F2003E
:100490000030F3008030F4003F30F5000A168A1176
:1004A000EB200A128A1103185D2AFF30831603130A
:1004B000B2070318B30AFF30792A831603132A08F8
:1004C000F0002B08F1002C08F2000030F30020307F
:1004D000F4004130F5000A168A11EB200A128A1145
:1004E000031C7A2A013083160313B2070318B30AD8
:1004F0000030B307831603133C08803AFF008030B6
:100500007F02031D852A0D303B020318C02A831683
:1005100003133B080A128A15CE210A128A1183128C
:1005200003134008D0004108D1004208D2008316CE
:100530000313380883120313D300831603133908F7
:1005400083120313D400831603133A088312031390
:10055000D5000A168A11C5250A128A1183120313BF
:10056000500883160313B80083120313510883162F
:100570000313B90083120313520883160313BA003E
:10058000831603133308803AFF0080307F02031D77
:10059000CB2A0A3032020318FE2A831603133A08C4
:1005A000390438040319572B380883120313C90080
:1005B00083160313390883120313CA008316031327
:1005C0003A0883120313CB000A168A11B4210A12C7
:1005D0008A11831203134C084B044A044904031D77
:1005E000572B831603133308803AFF0080307F02B5
:1005F000031DFC2A02303202031C572B83160313FF
:100600002A08F0002B08F1002C08F2007030F300EB
:100610008930F4004030F5000A168A11EB200A12E6
:100620008A110318152BF730162BF8308316031395
:10063000B2070318B30AFF30B30732080A128A154B
:1006400065250A128A1183120313400883160313C7
:10065000AA0083120313410883160313AB0083120D
:100660000313420883160313AC003808F00039085E
:10067000F1003A08F2002A08F3002B08F4002C08D5
:10068000F5000A168A112F240A128A11730883169C
:100690000313B1007208B0007108AF007008AE001B
:1006A0000030B8000030B9000030BA00C62B831605
:1006B0000313380883120313C90083160313390880
:1006C00083120313CA00831603133A088312031319
:1006D000CB000A168A11B4210A128A11831203135D
:1006E0004C0883160313B100831203134B088316BF
:1006F0000313B000831203134A0883160313AF00D9
:1007000083120313490883160313AE003108FB005C
:100710003008FA002F08F9002E08F8000A168A158A
:1007200088250A128A11780883120313DD007908DC
:10073000DE007A08DF0083160313380883120313E0
:10074000E00083160313390883120313E1008316B4
:1007500003133A0883120313E2000A168A151725B9
:100760000A128A11831203135D0883160313B8005B
:10077000831203135E0883160313B9008312031355
:100780005F0883160313BA00B201B301BD01BD0AAD
:100790000A303D060319082C3D08A0000130031063
:1007A000A00DFF3E031DCF2B0310200D013E840042
:1007B0000A168A1100200A128A11A1000A168A114B
:1007C00000200A128A11A2000A168A1100200A12B9
:1007D0008A11A3000A168A1100200A128A11A400A5
:1007E00024083102031DFE2B23083002031DFE2BBB
:1007F00022082F02031DFE2B21082E02031C082CA9
:100800000130A0002008BD070A303D06031DCC2B97
:100810003B083D07A0003C0803183C0A003EBD1BF6
:10082000FF3EA10032082007A20033080318330A54
:100830002107A3002208B6022308031CB703B7024E
:100840003B083C0403192A2CFF30B6070318B70AEB
:10085000FF30B70703303405A00000303505A10094
:100860002008210403193A2CFF30B6070318B70AF1
:10087000FF30B707341DA72C03303405A00000302B
:100880003505A1002008210403195B2C2D30A000A0
:1008900083120313630884008317641C8313831675
:1008A000031320088000013083120313E3070318A9
:1008B000E40A0030E407831603133708803AFF0088
:1008C00080307F02031D662C01303602031CD52CBC
:1008D000303083160313A0008312031363088400CF
:1008E0008317641C831383160313200880000130D0
:1008F00083120313E3070318E40A0030E407FF3010
:1009000083160313B6070318B70AFF30B7075B2C2B
:10091000203083160313A00083120313630884009E
:100920008317641C8313831603132008800001308F
:1009300083120313E3070318E40A0030E407FF30CF
:1009400083160313B6070318B70AFF30B7078316D9
:1009500003133708803AFF0080307F02031DB22C5A
:10096000013036020318882C033083160313340534
:10097000A00000303505A100200821040319D52C62
:100980002D30A00083120313630884008317641CB6
:10099000831383160313200880000130831203138E
:1009A000E3070318E40A0030E407FF30831603135B
:1009B000A0002008BD073D0A03197C2D83160313F0
:1009C0003D08A00001300310A00DFF3E031DE32CE5
:1009D0000310200D013E84000A168A1100200A121D
:1009E0008A11F0000A168A1100200A128A11F100F9
:1009F0000A168A1100200A128A11F2000A168A11B8
:100A000000200A128A11F3003108F7003008F600BE
:100A10002F08F5002E08F4000A128A150A200A127F
:100A20008A11730883160313AD007208AC007108B5
:100A3000AB007008AA00003083120313A30000303B
:100A4000A2000030A1000A30A000831603132D0875
:100A500083120313A700831603132C0883120313B6
:100A6000A600831603132B0883120313A500831615
:100A700003132A0883120313A4000A168A15AB264F
:100A80000A128A1183120313230883160313AD007D
:100A900083120313220883160313AC00831203137B
:100AA000210883160313AB00831203132008831657
:100AB0000313AA002A08303EC12C303083160313DA
:100AC000A00083120313630884008317641C83133C
:100AD0008316031320088000013083120313E307F9
:100AE0000318E40A0030E407FF3083160313B2074B
:100AF0000318B30AFF30B3073308803AFF00803091
:100B00007F02031D852D0130320203185D2D8316EF
:100B100003133C08803AFF0080307F02031D922DB2
:100B200009303B02031C982D0830831603139B2DBC
:100B3000831603133B08A0002008BD003D08A00059
:100B4000A101A01BA1032008BB022108031CBC03B8
:100B5000BC023D080319C12D2E30A00083120313DF
:100B6000630884008317641C83138316031320080F
:100B70008000013083120313E3070318E40A0030F6
:100B8000E407831603133D080A128A1565250A1225
:100B90008A1183120313400883160313A6008312DD
:100BA0000313410883160313A7008312031342089B
:100BB00083160313A800260883120313B3008316B9
:100BC0000313270883120313B400831603132808A2
:100BD00083120313B500831603133808831203131B
:100BE000B00083160313390883120313B100831670
:100BF00003133A0883120313B2000A168A11F2246F
:100C00000A128A11831203133008C9003108CA007E
:100C10003208CB000A168A11B4210A128A118312F3
:100C200003134C0883160313B100831203134B08FC
:100C300083160313B000831203134A0883160313A9
:100C4000AF0083120313490883160313AE00FF306D
:100C5000A0002008BD073D0A0319362F3D08A0005B
:100C600001300310A00DFF3E031D312E0310200D97
:100C7000013E84000A168A1100200A128A11F0002F
:100C80000A168A1100200A128A11F1000A168A1126
:100C900000200A128A11F2000A168A1100200A1294
:100CA0008A11F3003108F7003008F6002F08F5002C
:100CB0002E08F4000A128A150A200A128A117308F3
:100CC00083160313AD007208AC007108AB00700806
:100CD000AA00003083120313A3000030A2000030EA
:100CE000A1000A30A000831603132D0883120313FA
:100CF000A700831603132C0883120313A600831680
:100D000003132B0883120313A500831603132A0869
:100D100083120313A4000A168A15AB260A128A113D
:100D200083120313230883160313AD0083120313E6
:100D3000220883160313AC008312031321088316C1
:100D40000313AB0083120313200883160313AA00B6
:100D50002A08303EA000831203136308840083171F
:100D6000641C831383160313200880000130831250
:100D70000313E3070318E40A0030E40783160313A0
:100D80003D08A00001300310A00DFF3E031DC32E3F
:100D90000310200D013E84000A168A1100200A1259
:100DA0008A1183120313A0000A168A1100200A1266
:100DB0008A11A1000A168A1100200A128A11A200C3
:100DC0000A168A1100200A128A11A300831603133F
:100DD000310883120313A70083160313300883120C
:100DE0000313A600831603132F0883120313A50011
:100DF000831603132E0883120313A4000A168A1500
:100E0000AB260A128A1183120313230883160313D5
:100E1000B10083120313220883160313B000831258
:100E20000313210883160313AF0083120313200852
:100E3000242E3030A000831203136308840083172C
:100E4000641C83138316031320088000013083126F
:100E50000313E3070318E40A0030E407FF308316A6
:100E60000313BB070318BC0AFF30BC073B083C0454
:100E700003192C28192F2908840083130008A000C7
:100E8000840A0008A1002008AE002108AF0000304D
:100E9000AF1BFF30B000B1000230A0002008A9074E
:100EA000B11F612F0330B4040030B504AE09AF099F
:100EB000B009B109AE0A0319AF0A0319B00A031940
:100EC000B10A3B083C04031D712F310830042F0484
:100ED0002E04031D712F0130BB070318BC0A00301C
:100EE000BC07BD01BD0A0A303D060319B32F3D08FA
:100EF000A00001300310A00DFF3E031D7A2F031048
:100F0000200D013E84000A168A1100200A128A115F
:100F1000A1000A168A1100200A128A11A2000A16DC
:100F20008A1100200A128A11A3000A168A110020D1
:100F30000A128A11A40024083102031DA92F2308D4
:100F40003002031DA92F22082F02031DA92F2108FB
:100F50002E02031CB32F0130A0002008BD070A3069
:100F60003D06031D772F3D08A000A101A01BA10392
:100F70002108803AA2003C08803A2202031DC22FB9
:100F80003B0820020A128A150318682883160313E7
:100F90003B08A0002008BD000A128A1582280A1208
:100FA0008A15C229831603170A168A11A5200A1268
:100FB0008A1190000A168A11A6200A128A1191003D
:100FC0000A168A11A7200A128A1192000A168A119B
:100FD000A8200A128A119300831603130A128A1199
:100FE00003200A128A11EE000A128A110420EF006F
:100FF000EA01EB01EC01ED0183010A128A15682B6D
:10100400720871047004031908008030F2060800A5
:101014000030FC000030FB000030FA000030F90022
:10102400730872047104700403195F28FD01FD0A3A
:10103400F31B2A280130F8000310F00DF10DF20D16
:10104400F30DF80B1E280130F8007808FD071A2864
:101054000130F8000310F90DFA0DFB0DFC0DF80B2F
:101064002C2873087702031D412872087602031D99
:10107400412871087502031D412870087402031C7D
:1010840052287008F4027108031C710FF5027208EB
:10109400031C720FF6027308031C730FF702791412
:1010A40001300310F30CF20CF10CF00CFF3E031DA5
:1010B40053280130FD02031D2A287C08F3007B0815
:1010C400F2007A08F1007908F0000800831603138F
:1010D4003D08A000A101A01BA1033C08803AA20086
:1010E4002108803A2202031D792820083B020318B4
:1010F4008228831603133D08BB00BC01BB1BBC0341
:10110400831603133608370403199828033034056B
:10111400A00000303505A1002008210403199828F7
:10112400FF30B6070318B70AFF30B707351FB328D7
:101134003C08803AA0003708803A2002031DA42806
:1011440036083B020318AF28831603133B08B60284
:101154003C08031CB703B702B32883160313B60174
:10116400B7013D08A000A101A01BA1032108803AFA
:10117400A2003708803A2202031DC2283608200242
:101184000318D228831603133D08A000A101A01B55
:10119400A1032008B6022108031CB703B702D6280E
:1011A40083160313B601B701341D1B29033034051C
:1011B400A00000303505A100200821040319F728F8
:1011C4002D30A00083120313630884008317641C6A
:1011D4008313831603132008800001308312031342
:1011E400E3070318E40A0030E40783160313360800
:1011F400370403195F293030A000831203136308F6
:1012040084008317641C831383160313200880004F
:10121400013083120313E3070318E40A0030E407E0
:10122400FF3083160313B6070318B70AFF30B70756
:10123400F92836083704031940292030A000831206
:101244000313630884008317641C83138316031336
:1012540020088000013083120313E3070318E40A13
:101264000030E407FF3083160313B6070318B70AE8
:10127400FF30B70736083704031D1F290330340530
:10128400A00000303505A1002008210403195F29BE
:101294002D30A00083120313630884008317641C99
:1012A4008313831603132008800001308312031371
:1012B400E3070318E40A0030E407FF30831603133E
:1012C400BB070318BC0AFF30BC073B0A03193C0ADE
:1012D4000319CB2900308312A3000030A200003090
:1012E400A1000A30A000831603133B08A0000130BC
:1012F4000310A00DFF3E031D7A290310200D013EAB
:1013040084000A168A1100200A128A15F0000A16AF
:101314008A1100200A128A15F1000A168A11002087
:101324000A128A15F2000A168A1100200A128A1576
:10133400F3003108F7003008F6002F08F5002E08F6
:10134400F4000A128A150A200A128A1573088312F5
:101354000313A7007208A6007108A5007008A40072
:101364000A168A15AB260A128A158312031320085B
:10137400303E83160313A1002108BD003D084B290C
:1013840083120313630884008317641C831380018E
:1013940008000A128A112C2883120313CF006E301E
:1013A4004F02031CAC2A0330C3004308A4000A30D4
:1013B400F7000030F8004F08C400C5014408F200EB
:1013C4004508F3006430F0000030F1000A168A1575
:1013D40060260A128A157108FA007008F9000A16C4
:1013E4008A15A5270A128A157708093E0A168A154E
:1013F400BC240A128A15503E84000A168A11002061
:101404000A128A1583120313B0000A168A110020E7
:101414000A128A15B1000A168A1100200A128A15C6
:10142400B2000330C6004608A4006430F700003060
:10143400F8004F08C700C8014708F9004808FA0037
:101444000A168A15A5270A128A157708123E0A1663
:101454008A15BC240A128A15503E84000A168A1181
:1014640000200A128A1583120313B3000A168A1184
:1014740000200A128A15B4000A168A1100200A12E2
:101484008A15B5000A168A11F2240A128A158312E3
:1014940003133008CC003108CD003208CE000330ED
:1014A400C3004308A4004F08C400C5014408F20067
:1014B4004508F3000A30F0000030F1000A168A15DE
:1014C40060260A128A1570080A168A15BC240A12A4
:1014D4008A15503E84000A168A1100200A128A15C1
:1014E40083120313B0000A168A1100200A128A1507
:1014F400B1000A168A1100200A128A15B2004C089B
:10150400B3004D08B4004E08B5000A168A11F2243F
:101514000A128A15831203133008C9003108CA005D
:101524003208CB000030B0000030B1003F30B200D0
:101534004908B3004A08B4004B08B5000A168A11DA
:10154400F224831203133008C0003108C1003208AA
:10155400C20008000B304F02031C362B0330C300BB
:101564004308A4004F08C400C5014408F20045081C
:10157400F3000A30F0000030F1000A168A156026E4
:101584000A128A1570080A168A15BC240A128A15CA
:10159400503E84000A168A1100200A128A1583120A
:1015A4000313B0000A168A1100200A128A15B1002A
:1015B4000A168A1100200A128A15B2000330C600E6
:1015C4004608A4000A30F7000030F8004F08C700AE
:1015D400C8014708F9004808FA000A168A15A52721
:1015E4000A128A157708093E0A168A15BC240A12BB
:1015F4008A15503E84000A168A1100200A128A15A0
:1016040083120313B3000A168A1100200A128A15E2
:10161400B4000A168A1100200A128A15B5000A16A7
:101624008A11F2240A128A15831203133008CC009B
:101634003108CD003208CE000030B0000030B100D7
:101644003F30B2004C08B3004D08B4004E08B5005A
:101654000A168A11F224831203133008C0003108D9
:10166400C1003208C20008000030B0000030B100F0
:101674003F30B2000330C3004308A4004F080A16E9
:101684008A15BC240A128A15503E84000A168A114F
:1016940000200A128A1583120313B3000A168A1152
:1016A40000200A128A15B4000A168A1100200A12B0
:1016B4008A15B5000A168A11F2248312031330081E
:1016C400C0003108C1003208C200080083160313A9
:1016D4006F08E9006E08E800831603178801890182
:1016E40083160313860187010A168A15AD240A128C
:1016F4008A1583160317130883120313E000831655
:101704000317120883120313DF008316031711084B
:1017140083120313DE0083160317100883120313C6
:10172400DD00831603136F0883120313E20083168C
:1017340003136E0883120313E1000A168A15F926AF
:101744000A128A150A168A154A270A128A15831656
:10175400031385100511831203130610861000303D
:101764000718013083160313ED000A168A1538256D
:101774000A128A15C03083120313A0007F30A1001F
:101784004430A200831603136908F9006808F800BE
:101794000A168A15CF240A128A15780883120313AD
:1017A400A3007908A4007A08A5000A168A117723F1
:1017B4000A128A1583120313200883160313EA00FE
:1017C40083120313210883160313EB0083120313FC
:1017D400220883160313EC000030F3000030F200FB
:1017E4000330F100E830F000831603171308F70004
:1017F4001208F6001108F5001008F4000A168A1100
:1018040042220A128A15710883160313DF00700836
:10181400DE00BE3083120313E3000030E40089309D
:10182400EB006B08E500831603135F0883120313B0
:10183400E700831603135E0883120313E6000A12FB
:101844008A1126200A128A15CE3083120313E3006C
:101854000030E4007730EB006B08E50083160313D7
:101864006D0883120313EC00ED016C08E6006D08AB
:10187400E700831603136A0883120313E800831630
:1018840003136B0883120313E900831603136C0814
:1018940083120313EA000A128A1126200A128A15F7
:1018A4000A168A1594240A128A15F401F40A0130DE
:1018B4000A168A1516260A128A15BE30F50000305B
:1018C400F6000A168A15B3250A128A15F401F40AD9
:1018D40002300A168A1516260A128A15CE30F50029
:1018E4000030F6000A168A15B3250A128A1500304C
:1018F4000A168A155F250A128A15710883160313BE
:10190400E6007008E50069086606031D8B2C68086C
:1019140065060319082D6608E9006508E8006908EA
:1019240083120313D8008316031368088312031366
:10193400D7000A168A11D1220A128A15C0308312DE
:101944000313A0007F30A1004430A20083160313C8
:101954006908F9006808F8000A168A15CF240A12E3
:101964008A15780883120313A3007908A4007A085F
:10197400A5000A168A1177230A128A158312031303
:10198400200883160313EA00831203132108831625
:101994000313EB0083120313220883160313EC00D2
:1019A400E03083120313E3000030E4008330EB00E3
:1019B4006B08E500831603136A0883120313E60019
:1019C400831603136B0883120313E70083160313B0
:1019D4006C0883120313E8000A128A1126200A12E3
:1019E4008A150C3083120313EB006B08F4000230E9
:1019F4000A168A1516260A128A15E030F5000030F8
:101A0400F6000A168A15B3250A128A1583120313DF
:101A140007080139831603136D060319592D003085
:101A2400831203130718013083160313ED000A16FB
:101A34008A1538250A128A15831603136708831238
:101A44000313EB00EC016B08E3006C08E4009B302B
:101A5400ED006D08E500831603136D08831203136C
:101A6400EE00EF016E08E6006F08E7000A128A1123
:101A740026200A128A15053083120313EB006B0823
:101A8400F40002300A168A1516260A128A158316DD
:101A94000313670883120313EB00EC016B08F500D2
:101AA4006C08F6000A168A15B3250A128A15413005
:101AB40083120313EC00ED30EB00EB0B5F2DEC0B0A
:101AC4005F2D642D792C83120313C800C81FB62E12
:101AD400C809C80A4808803A123E031C292E03305C
:101AE400C3004308A4000A30F7000030F800480897
:101AF400F200F301F21BF3036430F0000030F10054
:101B04000A168A1560260A128A157108FA007008E6
:101B1400F9000A168A15A5270A128A157708093EBC
:101B24000A168A15BC240A128A15503E84000A1625
:101B34008A1100200A128A1583120313B0000A16B0
:101B44008A1100200A128A15B1000A168A1100208F
:101B54000A128A15B2000330C4004408A400643099
:101B6400F7000030F8004808F900FA01F91BFA03FD
:101B74000A168A15A5270A128A157708123E0A162C
:101B84008A15BC240A128A15503E84000A168A114A
:101B940000200A128A1583120313B3000A168A114D
:101BA40000200A128A15B4000A168A1100200A12AB
:101BB4008A15B5000A168A11F2240A128A158312AC
:101BC40003133008C5003108C6003208C7000330CB
:101BD400C3004308A4004808F200F301F21BF30316
:101BE4000A30F0000030F1000A168A1560260A1245
:101BF4008A1570080A168A15BC240A128A15503EE2
:101C040084000A168A1100200A128A15831203130B
:101C1400B0000A168A1100200A128A15B1000A16A9
:101C24008A1100200A128A15B2004508B30046083A
:101C3400B4004708B5000A168A11F224831203136C
:101C44003008C0003108C1003208C200080048084A
:101C5400803A753E031C972E0330C3004308A4004A
:101C64004808F200F301F21BF3030A30F0000030DD
:101C7400F1000A168A1560260A128A1570080A16D7
:101C84008A15BC240A128A15503E84000A168A1149
:101C940000200A128A1583120313B0000A168A114F
:101CA40000200A128A15B1000A168A1100200A12AD
:101CB4008A15B2000330C4004408A4000A30F700B7
:101CC4000030F8004808F900FA01F91BFA030A1673
:101CD4008A15A5270A128A157708093E0A168A1555
:101CE400BC240A128A15503E84000A168A11002068
:101CF4000A128A1583120313B3000A168A110020EC
:101D04000A128A15B4000A168A1100200A128A15CA
:101D1400B5000A168A11F224831203133008C00096
:101D24003108C1003208C20008000330C300430870
:101D3400A40048080A168A15BC240A128A15503EC3
:101D440084000A168A1100200A128A1583120313CA
:101D5400C0000A168A1100200A128A15C1000A1648
:101D64008A110020C20008004808803A123E031C71
:101D7400732F0330C3004308A4000A30F700003077
:101D8400F8004808F200F301F21BF3036430F0009A
:101D94000030F1000A168A1560260A128A157108A5
:101DA400FA007008F9000A168A15A5270A128A157E
:101DB4007708093E0A168A15BC240A128A15293E98
:101DC40084000A168A1100200A128A15831203134A
:101DD400B0000A168A1100200A128A15B1000A16E8
:101DE4008A1100200A128A15B2000330C400440884
:101DF400A4006430F7000030F8004808F900FA0144
:101E0400F91BFA030A168A15A5270A128A157708F8
:101E1400123E0A168A15BC240A128A15293E840029
:101E24000A168A1100200A128A1583120313B300BA
:101E34000A168A1100200A128A15B4000A168A1199
:101E440000200A128A15B5000A168A11F2240A1211
:101E54008A15831203133008C5003108C6003208FE
:101E6400C7000330C3004308A4004808F200F3018C
:101E7400F21BF3030A30F0000030F1000A168A1551
:101E840060260A128A1570080A168A15BC240A12DA
:101E94008A15293E84000A168A1100200A128A151E
:101EA40083120313B0000A168A1100200A128A153D
:101EB400B1000A168A1100200A128A15B2004508D8
:101EC400B3004608B4004708B5000A168A11F22484
:101ED400831203133008C0003108C1003208C20065
:101EE40008004808803A753E031CE12F0330C30004
:101EF4004308A4004808F200F301F21BF3030A307C
:101F0400F0000030F1000A168A1560260A128A15BC
:101F140070080A168A15BC240A128A15293E840000
:101F24000A168A1100200A128A1583120313B000BC
:101F34000A168A1100200A128A15B1000A168A119B
:101F440000200A128A15B2000330C4004408A40019
:101F54000A30F7000030F8004808F900FA01F91BCC
:101F6400FA030A168A15A5270A128A157708093E64
:101F74000A168A15BC240A128A15293E84000A16F8
:101F84008A1100200A128A1583120313B3000A1659
:101F94008A1100200A128A15B4000A168A11002038
:101FA4000A128A15B5000A168A11F2248312031341
:101FB4003008C0003108C1003208C20008000330F4
:101FC400C3004308A40048080A168A15BC240A1250
:101FD4008A15293E84000A168A1100200A128A15DD
:101FE40083120313C0000A168A1100200A128A15EC
:101FF400C1000A168A110020C200080010308A00AD
:102004000408840A820700340134003400340034A4
:102014000A340034003400346434003400340034AE
:10202400E8340334003400341034273400340034EA
:10203400A034863401340034403442340F34003444
:1020440080349634983400340034E134F534053463
:102054000034CA349A343B34003480343F3400347E
:10206400203441340034C834423400347A344434A3
:1020740040341C3446345034C33447342434743428
:102084004934973418344B34BC34BE344C346B3438
:102094006E344E340334153450347934AD346034F2
:1020A400F33449347134003480343F34CD34CC3487
:1020B4003D34D73423343C34123483343A34B73483
:1020C400D1343834C634273437343834863435344C
:1020D400C034D6343334CC342B3432347034893471
:1020E4003034E734DB342E34E5343C341E344234AB
:1020F400A2340D346434693472343D342534643488
:10210400203464347534743479343D3425343034B3
:102114002E3433346634003449346E3476346534C2
:1021240072347434653472342034663472346534F1
:1021340071343D34253464346B34003425346434D0
:02214400003465
:10214A008834133400340034FC018E30F9007908E5
:10215A00FB0083120313A91FBF28A609A709A80910
:10216A00A909A60A0319A70A0319A80A0319A90A99
:10217A00FC01FC0AFF3029050319D128013003109C
:10218A00A90CA80CA70CA60CFF3E031DC4280130FD
:10219A00F9007908FB07BF282608F0002708F10094
:1021AA002808F2007B08F9007908F3007C08FA0095
:1021BA007A08F4000A168A11482170088312031358
:1021CA00A6007108A7007208A8000800F21F1229C9
:1021DA000030F6000030F7008030F8007009F9008E
:1021EA007109FA007209FB00F90A0319FA0A0319BC
:1021FA00FB0A7908F6077A0803187A0F05290629CF
:10220A00F7077B0803187B0F0B290C29F8077608B8
:10221A00F0007708F1007808F200F51F392900303C
:10222A00F6000030F7008030F8007309F9007409ED
:10223A00FA007509FB00F90A0319FA0A0319FB0ADD
:10224A007908F6077A0803187A0F2C292D29F70737
:10225A007B0803187B0F32293329F8077608F30025
:10226A007708F4007808F5008030F2068030F50629
:10227A0075087202031D080074087102031D080024
:10228A007308700208007308031950297208710450
:10229A007004031D63290030F0000030F1000030A3
:1022AA00F20008000130F5007508F3070130031049
:1022BA00F20CF10CF00CFF3E031D5C29FE30720596
:1022CA0003197E2957290130F5007508F3070130F3
:1022DA00F007003003180130F1070030031801300D
:1022EA00F20701300310F20CF10CF00CFF3E031D53
:1022FA007729FF30720503198D2968290130F30205
:10230A0001300310F00DF10DF20DFF3E031D862979
:10231A00F11B9329023073020318832973189B292E
:10232A00FF30F0057F30F105FF30F2050310F30CA2
:10233A007308F500F601F70110300310F50DF60DDC
:10234A00F70DFF3E031DA2297508F0047608F10473
:10235A007708F204740803190800F21708008312B8
:10236A0003134908CD004A08CE004B08CF000310DA
:10237A004E0D4F0DD0005008D6005608031DCE2929
:10238A000030CC000030CB000030CA000030C90059
:10239A0008004908CD004A08CE004B08CF00173084
:1023AA000310CF0CCE0CCD0CFF3E031DD5294D08D2
:1023BA00D0005008D100CA17FF30C905FF30CA053E
:1023CA000030CB054908D2004A08D3004B08D40094
:1023DA00D5018E30D602D61F102A5608803A8F3E73
:1023EA000318002A0030CC000030CB000030CA00AD
:1023FA000030C900080001300310D50CD40CD30CEE
:10240A00D20CFF3E031D012A0130CD004D08D6072C
:10241A0003192B2A002A18305602031C282A0030D6
:10242A00CC000030CB000030CA000030C9000800E0
:10243A000130CD000310D20DD30DD40DD50DCD0B27
:10244A001F2A0130D6025608031D1D2A51080319F6
:10245A00392AD209D309D409D509D20A0319D30AC8
:10246A000319D40A0319D50A5508CC005408CB001D
:10247A005308CA005208C900080083120313A101B5
:10248A00F31F542AF009F109F209F309F00A0319B2
:10249A00F10A0319F20A0319F30AA101A10AF71FA3
:1024AA00652AF409F509F609F709F40A0319F50A80
:1024BA000319F60A0319F70A0130F8007808A10689
:1024CA000030A5000030A4000030A3000030A200B4
:1024DA0073087204710470040319BA2AA001A00ACD
:1024EA00F31B852A0130F8000310F00DF10DF20DEF
:1024FA00F30DF80B792A0130F8007808A007752A3D
:10250A000130F8000310A20DA30DA40DA50DF80BC0
:10251A00872A73087702031D9C2A72087602031D14
:10252A009C2A71087502031D9C2A70087402031CF8
:10253A00AD2A7008F4027108031C710FF5027208C3
:10254A00031C720FF6027308031C730FF70222149E
:10255A0001300310F30CF20CF10CF00CFF3E031DDA
:10256A00AE2A0130A002031D852A21080319C82AB0
:10257A00A209A309A409A509A20A0319A30A03190E
:10258A00A40A0319A50A2508F3002408F20023085F
:10259A00F1002208F00008000330831203135802E6
:1025AA00FF3003195702031808005808F9005708A2
:1025BA00F8000A168A15CF240A168A117808831297
:1025CA000313A3007908A4007A08A500C030A0006C
:1025DA007F30A1004430A2000A168A1177230A1616
:1025EA008A11831203132008B3002108B4002208B9
:1025FA00B5000030F7003D30F6000930F500003034
:10260A00F40083160317100883120313D9008316E4
:10261A000317110883120313DA008316031712082B
:10262A0083120313DB0083160317130883120313A1
:10263A00DC0002300310D90DDA0DDB0DDC0DFF3E94
:10264A00031D1F2B5C08F3005B08F2005A08F10017
:10265A005908F0000A168A1142220A168A117308CA
:10266A0083120313A9007208A8007108A700700852
:10267A00A6000A168A11A9200A168A1183120313C0
:10268A002608B0002708B1002808B2000A168A11E5
:10269A00F2240A168A11831203133008C90031087A
:1026AA00CA003208CB000A168A11B4218312031316
:1026BA004A08D8004908D70057080339D900D90E63
:1026CA0017085906CF39590697005808DA005708EB
:1026DA00D9000310DA0CD90C0310DA0CD90C5908FA
:1026EA0095000800831203132308A6002408A700F4
:1026FA002508A8000310270D280DA9002908AE00F7
:10270A002E08031D8F2B0030A0000030A1000030DE
:10271A00A20008002008A6002108A7002208A80095
:10272A000310270D280DA9002908AF002F08031D43
:10273A00A52B0030A0000030A1000030A200080044
:10274A000030AB000030AC000030AD0089302F07FC
:10275A00A6002608AE022308A6002408A70025081A
:10276A00A80010300310A80CA70CA60CFF3E031DEE
:10277A00B72B2608A9002908AF002008A6002108BF
:10278A00A7002208A80010300310A80CA70CA60C5A
:10279A00FF3E031DC92B2608A9002908AF06803071
:1027AA00A6002608AF05A417FF30A305FF30A4052D
:1027BA000030A505A117FF30A005FF30A1050030A4
:1027CA00A2051830A6002608AA0001300310AB0D96
:1027DA00AC0DAD0DFF3E031DEB2B22082502031D98
:1027EA00FC2B21082402031DFC2B20082302031CB6
:1027FA00092C2008A3022108031C210FA402220885
:10280A00031C220AA5022B1401300310A30DA40DE8
:10281A00A50DFF3E031D0A2C0130AA02031DEA2B57
:10282A002B08F0002C08F1002D08F2002E08A60053
:10283A002608F3002F08A7002708F4000A168A11B1
:10284A004821700883120313A0007108A1007208BE
:10285A00A20008007008F6007108F7007208F80074
:10286A000310770D780DF900790883120313A50078
:10287A002508031D492C0030F3000030F200003017
:10288A00F1000030F00008007308F6007408F70041
:10289A007508F8000310770D780DF9007908A4007F
:1028AA002408031D612C0030F3000030F2000030D0
:1028BA00F1000030F0000800F117FF30F005FF309A
:1028CA00F1050030F205F417FF30F305FF30F40587
:1028DA000030F5050030A3000030A2000030A1004E
:1028EA000030A0007F30A50298302407F600760851
:1028FA00A5021830F6007608A4000130F60003108D
:10290A00A00DA10DA20DA30DF60B842C7508720261
:10291A00031D952C74087102031D952C730870020F
:10292A00031CA22C7308F0027408031C740FF10232
:10293A007508031C750AF202201401300310F00D09
:10294A00F10DF20DFF3E031DA32C0130A402031D5D
:10295A00822CA51FCE2C2508803A973E0318BE2C40
:10296A000030F3000030F2000030F1000030F000D7
:10297A00080001300310A30CA20CA10CA00CFF3E0E
:10298A00031DBF2C0130F6007608A5070319E92CB0
:10299A00BE2C18302502031CE62C0030F300003050
:1029AA00F2000030F1000030F00008000130F600BB
:1029BA000310A00DA10DA20DA30DF60BDD2C013005
:1029CA00A5022508031DDB2C2308F3002208F200C8
:1029DA002108F1002008F0000800831203133008D0
:1029EA00B6003108B7003208B8000310370D380DA9
:1029FA00B9003908BA003A08031D0A2D0030B000A0
:102A0A000030B1000030B20008003308B6003408C4
:102A1A00B7003508B8000310370D380DB90039086A
:102A2A00BF003F08031D202D0030B0000030B10068
:102A3A000030B20008003F087B3EB6003608BA07ED
:102A4A003008B6003108B7003208B8001030031059
:102A5A00B80CB70CB60CFF3E031D2C2D3608B90076
:102A6A003908BF003308B6003408B7003508B80083
:102A7A0010300310B80CB70CB60CFF3E031D3E2DE8
:102A8A003608B9003908BF068030B6003608BF05D7
:102A9A00B117B417FF30B305FF30B4050030B505E0
:102AAA000030BB000030BC000030BD000730B6006B
:102ABA003608BE00301C6F2D3308BB0734080311DB
:102ACA000318340A031DBC07350803110318350A15
:102ADA00031DBD0701300310B20CB10CB00CFF3E50
:102AEA00031D702D01300310B30DB40DB50DFF3E5B
:102AFA00031D782D0130BE02031D5F2D0930B6007B
:102B0A003608BE00301C972D3308BB073408031162
:102B1A000318340A031DBC07350803110318350AC4
:102B2A00031DBD0701300310B20CB10CB00CFF3EFF
:102B3A00031D982D01300310BD0CBC0CBB0CFF3ECD
:102B4A00031DA02D0130BE02031D872D3B08F00096
:102B5A003C08F1003D08F2003A08B6003608F300D6
:102B6A003F08B7003708F4000A168A11482170088E
:102B7A0083120313B0007108B1007208B200080092
:102B8A00831203135008D6005108D7005208D80000
:102B9A000310570D580DD9005908DC005308D60008
:102BAA005408D7005508D8000310570D580DD900FE
:102BBA005908DB005C080319EE2D5B085C02031858
:102BCA00F52D5C03FF3A5B07D60019305602031C49
:102BDA00F52D5308D0005408D1005508D20008003A
:102BEA005B08031908005C085B020318042E5B03E8
:102BFA00FF3A5C07D600193056020318080006305F
:102C0A00D6005608DA00D21BDA17D51B5A17D11785
:102C1A00FF30D005FF30D1050030D205D417FF3080
:102C2A00D305FF30D4050030D5055B085C020318D4
:102C3A00442E01300310D30DD40DD50DFF3E031DD4
:102C4A001F2E0130DB025B085C0603193F2E0130A0
:102C5A00DA025A08073903193F2E1E2E01300310D3
:102C6A00D20CD10CD00CFF3E031D342E0130D600FD
:102C7A005608DC075C085B0603196D2E332E5C08C8
:102C8A005B0203186D2E01300310D00DD10DD20D49
:102C9A00FF3E031D492E0130DC025B085C06031966
:102CAA00692E0130DA025A0807390319692E482EAB
:102CBA0001300310D50CD40CD30CFF3E031D5E2E3D
:102CCA000130D6005608DB075C085B06031D5D2E43
:102CDA00DA1F7F2EFF30D006FF30D106FF30D20632
:102CEA000130D007003003180130D1070030031833
:102CFA000130D2075A1F912EFF30D306FF30D40677
:102D0A00FF30D5060130D307003003180130D4074D
:102D1A00003003180130D507DA015008D3075108EB
:102D2A0003110318510A031DD4075208031103188B
:102D3A00520A031DD507D51FB42EFF30D306FF3024
:102D4A00D406FF30D5060130D3070030031801300E
:102D5A00D407003003180130D507DA01DA0A53081C
:102D6A00F0005408F1005508F2005C08D600560835
:102D7A00F3005A08D7005708F4000A168A114821A6
:102D8A00700883120313D0007108D1007208D200B0
:102D9A000800703084000008F600840A0008F70072
:102DAA00840A0008F800840A0008F9000310780D64
:102DBA00790DFA007A0883120313A5002508031D6A
:102DCA00EF2E0030F3000030F2000030F100003046
:102DDA00F0000800733084000008F600840A000836
:102DEA00F700840A0008F800840A0008F9000310B2
:102DFA00780D790DFA007A08A4002408031D0E2F15
:102E0A000030F3000030F2000030F1000030F00032
:102E1A0008007030840000308004840A0030800486
:102E2A00840A80308004840A003080047030840070
:102E3A00FF308005840AFF308005840AFF30800550
:102E4A00840A003080057330840000308004840ACC
:102E5A0000308004840A80308004840A00308004B0
:102E6A0073308400FF308005840AFF308005840AAD
:102E7A00FF308005840A003080050030A30000304E
:102E8A00A2000030A1000030A0007F30A502A030CF
:102E9A002407F6007608A5022030F6007608A4007A
:102EAA000130F6000310A00DA10DA20DA30DF60B23
:102EBA00572F733084000008F600840A0008F700D0
:102ECA00840A0008F800840A0008F90070308400B7
:102EDA000008FA00840A0008FB00840A0008FC00C3
:102EEA00840A0008FD0079087D02031D862F7808F0
:102EFA007C02031D862F77087B02031D862F760826
:102F0A007A02031CAB2F733084000008F600840A8F
:102F1A000008F700840A0008F800840A0008F9008B
:102F2A007030840076088002840A7708031C770FC1
:102F3A008002840A7808031C780F8002840A7908C0
:102F4A00031C790A80020330840220147030840042
:102F5A000310800D840A800D840A800D840A800D76
:102F6A008403840384030130A402031D552FA51F83
:102F7A00DC2F2508803A9F3E0318CC2F0030F3003F
:102F8A000030F2000030F1000030F000080001309B
:102F9A000310A30CA20CA10CA00CFF3E031DCD2F05
:102FAA000130F6007608A5070319F72FCC2F203039
:102FBA002502031CF42F0030F3000030F200003029
:102FCA00F1000030F00008000130F6000310A00DF7
:102FDA00A10DA20DA30DF60BEB2F0130A5022508BA
:102FEA00031DE92F2308F3002208F2002108F1004B
:062FFA002008F0000800B1
:1039280000300A168A15FD240A168A1501300A166F
:103938008A15FD240800F100F0013A3071020318DD
:10394800AB2C30307102031CAB2CF001F00A700C68
:1039580008004130831203139F00C03083160313FD
:103968009F00831603170814831603130514080011
:1039780083120313A600A501261CC62C2408FC00EC
:103988007C08A5070310A40D0310A60C2608031D28
:10399800C02C250808007808F0007908F100F20129
:1039A8008E30FB007B08F300F4010A168A114821C7
:1039B8007008F8007108F9007208FA000800F000B1
:1039C800701CEA2C831203130717ED2C83120313C0
:1039D8000713F01CF12C8717F22C8713701DF62C97
:1039E8000617F72C0613F01DFB2C86170800861304
:1039F8000800F30083120313071273080A168A15C6
:103A0800E3240A168A158312031387160630F20078
:103A18003030F100F10B0E2DF20B0E2D0000831249
:103A2800031387120800831203135F085E045D0402
:103A38000319202D8030DF066008D0006108D1000E
:103A48006208D2005D08D3005E08D4005F08D50084
:103A58000A168A11C525831203135008DD00510880
:103A6800DE005208DF000800831603136D08031DEB
:103A78004E2D831203138514831603130711831223
:103A88000313061405118316031306158312031373
:103A980086100800831203130515831603130611F5
:103AA80083120313861485108316031307158312D4
:103AB800031306100800F4000130F20072088312A4
:103AC80003139F057408F20002300310F20DFF3E45
:103AD800031D692D0310720DF30073089F04033052
:103AE800F3009730F200F20B772DF30B772D7C2D36
:103AF800831203139F149F187F2D1E08F10083164D
:103B080003131E08F00008008E30FC007C08FD003E
:103B1800FF307B0503199E2D01300310FB0CFA0CB6
:103B2800F90CF80CFF3E031D912D0130FC007C08B8
:103B3800FD078C2D7808F0007908F1007A08F2006A
:103B48007D08FC007C08F300F4010A168A1148215C
:103B58007008F8007108F9007208FA000800F90105
:103B6800FA0179087507F7007A0803187A0A7607C0
:103B7800F800770884008317781C8313000803195A
:103B8800080079087507F7007A0803187A0A760793
:103B9800F800770884008317781C831300080A1636
:103BA8008A15DF250A168A150130F9070318FA0A5B
:103BB8000030FA07B52DF40074080F39F1007108C8
:103BC800F2007408F039F1007108F300831203134E
:103BD80007167308F10004300310F10CFF3E031DB3
:103BE800F02D71080A168A15E3240A168A1583121D
:103BF800031387160D30F100F10B002E8312031307
:103C0800871272080A168A15E3240A168A1583127F
:103C1800031387160D30F100F10B102E83120313D6
:103C280087120800F7007703031D3B2E74087F3EB8
:103C3800F5007508FA007A08F50004300310F50C51
:103C4800FF3E031D222E7508F6007608F8007A0854
:103C58000F39F5007508F90078080A168A15FD2449
:103C68000A168A1579080A168A15FD2408000230F2
:103C78007706031D08007408BF3EF5007508FA00B2
:103C88007A08F50004300310F50CFF3E031D472E9B
:103C98007508F6007608F8007A080F39F5007508F7
:103CA800F90078080A168A15FD240A168A15790873
:103CB8000A168A15FD240800F601F31F6A2EF20978
:103CC800F309F20A0319F30AF601F60AF11F712E35
:103CD800F009F109F00A0319F10A700871040319CF
:103CE8009E2EF501F50AF11B852E01300310F00D0B
:103CF800F10DFF3E031D7A2E0130F4007408F5071C
:103D0800772E71087302031D8B2E70087202031C34
:103D1800932E7008F2027108031CF303F3020130BA
:103D28000310F10CF00CFF3E031D942E0130F50238
:103D3800031D852E76080319A62EF209F309F20A47
:103D48000319F30A7308F1007208F00008008312DF
:103D5800031323082204210420040319F02EA901C7
:103D6800A90AA31BC52E0130A8000310A00DA10DA0
:103D7800A20DA30DA80BB92E0130A8002808A90789
:103D8800B52E23082702031DD32E22082602031D61
:103D9800D32E21082502031DD32E20082402031C3C
:103DA800E32E2008A4022108031C210FA5022208E3
:103DB800031C220FA6022308031C230FA7020130AD
:103DC8000310A30CA20CA10CA00CFF3E031DE42EB3
:103DD8000130A902031DC52E2708A3002608A2004A
:103DE8002508A1002408A0000800831203135D0819
:103DF800E3005E08E4005F08E5006008E6000230C2
:103E08000310E30DE40DE50DE60DFF3E031D042F41
:103E180002300310E30DE40DE50DE60DFF3E031D32
:103E28000D2F6608F3006508F2006408F1006308C6
:103E3800F0000030F7003D30F6000930F5000030A2
:103E4800F4000A168A1142220A168A157008FF3EE3
:103E58008316031392008312031317083F3980381F
:103E680097001708F0390D3897001208FC39013807
:103E7800920012156208D8006108D7000A168A1144
:103E8800D1228316031307110611080000300A1601
:103E98008A15E3240A168A151A30F500F830F4005A
:103EA800F40B542FF50B542F000003300A168A1513
:103EB800FD240A168A150730F5007D30F400F40B4E
:103EC800632FF50B632F03300A168A15FD240A1693
:103ED8008A150F30F5004730F400F40B712FF50BFD
:103EE800712F762F03300A168A15FD240A168A15B3
:103EF80002300A168A15FD240A168A1502300A1697
:103F08008A15FD240A168A1508300A168A15FD2412
:103F18000A168A1500300A168A15FD240A168A150B
:103F28000C300A168A15FD240A168A1500300A165E
:103F38008A15FD240A168A1506300A168A15FD24E4
:103F4800080083120313A101F81FB12FF709F8091C
:103F5800F70A0319F80AA101A10AFA1FBC2FF909E7
:103F6800FA09F90A0319FA0A0130FB007B08A106CD
:103F7800A201A301770878040319F32FA001A00A6E
:103F8800F81BD22F01300310F70DF80DFF3E031D6B
:103F9800C72F0130FB007B08A007C42F0130031096
:103FA800A20DA30DFF3E031DD32F78087A02031D2F
:103FB800DF2F77087902031CE82F7708F9027808C1
:103FC800031CFA03FA02221401300310F80CF70C50
:103FD800FF3E031DE92F0130A002031DD22F210847
:103FE8000319FB2FA209A309A20A0319A30A23088C
:083FF800F8002208F7000800A0
:04400E00F4F0FFFFCC
:00000001FF
