:060000000A128A11DA2F3A
:1005F000FA34003488341334003400344130831228
:1006000003139F00C030831603139F008316031744
:10061000081483160313051408007808F0007908FD
:10062000F100F2018E30FB007B08F300F4010A12A6
:100630008A1130247008F8007108F9007208FA0075
:100640000800F4000130F2007208831203139F05C2
:100650007408F20002300310F20DFF3E031D2B2B35
:100660000310720DF30073089F040330F3009730FA
:10067000F200F20B392BF30B392B3E2B83120313B1
:100680009F149F18412B1E08F100831603131E08A8
:10069000F0000800FC018E30F9007908FB0083129D
:1006A0000313A91F602BA609A709A809A909A60A6F
:1006B0000319A70A0319A80A0319A90AFC01FC0ACD
:1006C000FF3029050319722B01300310A90CA80C67
:1006D000A70CA60CFF3E031D652B0130F90079081D
:1006E000FB07602B2608F0002708F1002808F2001D
:1006F0007B08F9007908F3007C08FA007A08F40016
:100700000A128A113024700883120313A60071089C
:10071000A7007208A8000800831203135408DA0027
:100720005508DB005608DC005708DD0002300310D6
:10073000DA0DDB0DDC0DDD0DFF3E031D972B0230C6
:100740000310DA0DDB0DDC0DDD0DFF3E031DA02BCC
:100750005D08F3005C08F2005B08F1005A08F00045
:100760000030F7003D30F6000930F5000030F400AD
:100770000A128A112A250A128A117008FF3E83166E
:10078000031392008312031317083F398038970030
:100790001708F0390D3897001208FC39013892001B
:1007A00012155908CF005808CE000A128A11B9252F
:1007B000831603130711061108008312031365083B
:1007C000E3006408E2008316031788018901831699
:1007D0000313860187010A128A11FE220A128A1166
:1007E000831203136908D7006808D6006708D5008C
:1007F0006608D4006508D9006408D8000A128A1176
:100800008C230A128A1100300A128A1121230A123B
:100810008A11710883120313E1007008E000630875
:100820006106031D152C620860060319242C61085B
:10083000E3006008E2006308CF006208CE000A12FD
:100840008A11B9250A128A11413083120313DF007D
:10085000ED30DE00DE0B2A2CDF0B2A2C2F2C032C94
:1008600073080319382C720871047004031D4B2C93
:100870000030F0000030F1000030F20008000130DC
:10088000F5007508F30701300310F20CF10CF00CC1
:10089000FF3E031D442CFE3072050319662C3F2CCD
:1008A0000130F5007508F3070130F0070030031838
:1008B0000130F107003003180130F2070130031056
:1008C000F20CF10CF00CFF3E031D5F2CFF307205A3
:1008D0000319752C502C0130F30201300310F00D78
:1008E000F10DF20DFF3E031D6E2CF11B7B2C02302F
:1008F000730203186B2C7318832CFF30F0057F30C4
:10090000F105FF30F2050310F30C7308F500F60152
:10091000F70110300310F50DF60DF70DFF3E031D26
:100920008A2C7508F0047608F1047708F20474083C
:1009300003190800F2170800831203134008C400CB
:100940004108C5004208C6000310450D460DC7000A
:100950004708CD004D08031DB62C0030C300003001
:10096000C2000030C1000030C00008004008C400D0
:100970004108C5004208C60017300310C60CC50C5C
:10098000C40CFF3E031DBD2C4408C7004708C80027
:10099000C117FF30C005FF30C1050030C205400857
:1009A000C9004108CA004208CB00CC018E30CD02FC
:1009B000CD1FF82C4D08803A8F3E0318E82C0030EC
:1009C000C3000030C2000030C1000030C000080089
:1009D00001300310CC0CCB0CCA0CC90CFF3E031D1C
:1009E000E92C0130C4004408CD070319132DE82C6D
:1009F00018304D02031C102D0030C3000030C2001F
:100A00000030C1000030C00008000130C4000310F5
:100A1000C90DCA0DCB0DCC0DC40B072D0130CD0275
:100A20004D08031D052D48080319212DC909CA09C0
:100A3000CB09CC09C90A0319CA0A0319CB0A03193D
:100A4000CC0A4C08C3004B08C2004A08C100490840
:100A5000C000080083120313A101F31F3C2DF0090D
:100A6000F109F209F309F00A0319F10A0319F20A6C
:100A70000319F30AA101A10AF71F4D2DF409F50985
:100A8000F609F709F40A0319F50A0319F60A031916
:100A9000F70A0130F8007808A1060030A500003000
:100AA000A4000030A3000030A20073087204710497
:100AB00070040319A22DA001A00AF31B6D2D0130B3
:100AC000F8000310F00DF10DF20DF30DF80B612D90
:100AD0000130F8007808A0075D2D0130F800031000
:100AE000A20DA30DA40DA50DF80B6F2D73087702B1
:100AF000031D842D72087602031D842D7108750272
:100B0000031D842D70087402031C952D7008F402D7
:100B10007108031C710FF5027208031C720FF602B4
:100B20007308031C730FF702221401300310F30C37
:100B3000F20CF10CF00CFF3E031D962D0130A002CB
:100B4000031D6D2D21080319B02DA209A309A409C5
:100B5000A509A20A0319A30A0319A40A0319A50ADD
:100B60002508F3002408F2002308F1002208F00011
:100B700008000330831203134F02FF3003194E02A3
:100B8000031808004F08F9004E08F8000A128A11ED
:100B90000D230A128A11780883120313A30079081F
:100BA000A4007A08A500C030A0007F30A100443026
:100BB000A2000A128A114F260A128A118312031305
:100BC0002008B3002108B4002208B5000030F70067
:100BD0003D30F6000930F5000030F4006608D00022
:100BE0006708D1006808D2006908D30002300310FA
:100BF000D00DD10DD20DD30DFF3E031DF72D53089F
:100C0000F3005208F2005108F1005008F0000A12F7
:100C10008A112A250A128A11730883120313A90064
:100C20007208A8007108A7007008A6000A128A11AD
:100C30004A230A128A11831203132608B0002708D8
:100C4000B1002808B2000A128A1107270A128A1175
:100C5000831203133008C0003108C1003208C200FB
:100C60000A128A119C24831203134108CF00400802
:100C7000CE004E080339D000D00E17085006CF39E9
:100C8000500697004F08D1004E08D0000310D10C39
:100C9000D00C0310D10CD00C500895000800831222
:100CA00003132308A6002408A7002508A8000310A2
:100CB000270D280DA9002908AE002E08031D672E58
:100CC0000030A0000030A1000030A2000800200881
:100CD000A6002108A7002208A8000310270D280D50
:100CE000A9002908AF002F08031D7D2E0030A000A9
:100CF0000030A1000030A20008000030AB0000303E
:100D0000AC000030AD0089302F07A6002608AE02E7
:100D10002308A6002408A7002508A8001030031007
:100D2000A80CA70CA60CFF3E031D8F2E2608A900B9
:100D30002908AF002008A6002108A7002208A80063
:100D400010300310A80CA70CA60CFF3E031DA12E0B
:100D50002608A9002908AF068030A6002608AF059E
:100D6000A417FF30A305FF30A4050030A505A11787
:100D7000FF30A005FF30A1050030A2051830A60005
:100D80002608AA0001300310AB0DAC0DAD0DFF3EDF
:100D9000031DC32E22082502031DD42E2108240280
:100DA000031DD42E20082302031CE12E2008A302D9
:100DB0002108031C210FA4022208031C220AA502F9
:100DC0002B1401300310A30DA40DA50DFF3E031D30
:100DD000E22E0130AA02031DC22E2B08F0002C08BF
:100DE000F1002D08F2002E08A6002608F3002F08B7
:100DF000A7002708F4000A128A1130247008831211
:100E00000313A0007108A1007208A2000800831259
:100E100003133008B6003108B7003208B8000310D9
:100E2000370D380DB9003908BA003A08031D1F2FD5
:100E30000030B0000030B1000030B20008003308CC
:100E4000B6003408B7003508B8000310370D380D68
:100E5000B9003908BF003F08031D352F0030B0002E
:100E60000030B1000030B20008003F087B3EB60001
:100E70003608BA073008B6003108B7003208B800A3
:100E800010300310B80CB70CB60CFF3E031D412FF9
:100E90003608B9003908BF003308B6003408B70077
:100EA0003508B80010300310B80CB70CB60CFF3E74
:100EB000031D532F3608B9003908BF068030B6002D
:100EC0003608BF05B117B417FF30B305FF30B405BE
:100ED0000030B5050030BB000030BC000030BD0064
:100EE0000730B6003608BE00301C842F3308BB071D
:100EF000340803110318340A031DBC073508031115
:100F00000318350A031DBD0701300310B20CB10CE4
:100F1000B00CFF3E031D852F01300310B30DB40D3F
:100F2000B50DFF3E031D8D2F0130BE02031D742F32
:100F30000930B6003608BE00301CAC2F3308BB07A2
:100F4000340803110318340A031DBC0735080311C4
:100F50000318350A031DBD0701300310B20CB10C94
:100F6000B00CFF3E031DAD2F01300310BD0CBC0CB7
:100F7000BB0CFF3E031DB52F0130BE02031D9C2F8D
:100F80003B08F0003C08F1003D08F2003A08B600CA
:100F90003608F3003F08B7003708F4000A128A1138
:100FA0003024700883120313B0007108B100720876
:100FB000B20008000A128A11F8220A128A11E4000B
:100FC0000A128A11F9220A128A11E5000A128A11FC
:100FD000FA220A128A11E6000A128A11FB220A1268
:100FE0008A11E7000A128A11FC220A128A11E8000B
:100FF0000A128A11FD22E90083010A128A11DD2BEF
:04400E00F4F0FFFFCC
:00000001FF
